:020000040800F2
:10000000E0340020A9010008EB3A0008193100088B
:10001000E93A000833150008C34300080000000057
:100020000000000000000000000000005540000833
:100030008117000800000000093F0008F94000088F
:10004000C3010008C3010008C3010008C301000880
:10005000C3010008C3010008C3010008C301000870
:10006000C3010008C3010008C3010008C301000860
:10007000C3010008C3010008C3010008C301000850
:10008000C3010008C3010008C3010008C301000840
:10009000C3010008C3010008C30100088B17000852
:1000A000C30100085D410008C3010008C301000846
:1000B000C3010008C3010008C3010008C301000810
:1000C000C3010008C3010008C3010008C301000800
:1000D000C3010008C3010008C3010008C3010008F0
:1000E00083170008C3010008C301000800F002F8EC
:1000F00000F04AF80AA090E8000C82448344AAF178
:100100000107DA4501D100F03FF8AFF2090EBAE875
:100110000F0013F0010F18BFFB1A43F0010318473B
:10012000C8740000E8740000103A24BF78C878C191
:10013000FAD8520724BF30C830C144BF04680C60ED
:10014000704700000023002400250026103A28BF35
:1001500078C1FBD8520728BF30C148BF0B60704739
:10016000662905F0DB81642900F07A800020704761
:100170001FB500F0FDFB04000020002104F010FF7B
:10018000E0601FBD10B510BD00F0F2FC1146FFF796
:10019000EFFF04F069F900F010FD03B4FFF7F2FF80
:1001A00003BC00F053FD00000948804709480047A0
:1001B000FEE7FEE7FEE7FEE7FEE7FEE7FEE7FEE717
:1001C000FEE7FEE704480549054A064B7047000074
:1001D0005B410008ED000008E02E0020E034002024
:1001E000E0300020E03000200FB41CB5074B06AA19
:1001F0007B4469460090059800F0A1FB0020694609
:1002000000F0B0FB1CBC5DF814FB0000710700009F
:1002100070B5044685690068C10601D5302600E046
:100220002026C00707D070BDD4E901213046904791
:10023000206A401C20626D1EF6D570BD70B5044664
:1002400085690078C00707D170BDD4E9012120205D
:100250009047206A401C20626D1EF6D570BD0000DC
:100260002DE9F0410646002410687529314616A58F
:1002700010D0AFF30080002802DA404213A507E057
:1002800031688A0701D512A502E0490704D511A5F6
:10029000012401E0AFF3008000210A2206F12407C7
:1002A00009E0B0FBF2FCB0FBF2F302FB1C003030C3
:1002B00078541846491C0028F3D123462A46304674
:1002C000BDE8F04100F0CEB8000000002D000000B5
:1002D0002B000000200000002DE9F05F8946044655
:1002E0004FF0000ADFF824B1FB44C0F820A02046FC
:1002F000E168884700287DD0252806D0D4E901216F
:100300009047206A401C2062F1E700255F462046A6
:10031000E16888472028064607DB312E05D2B81948
:1003200010F8200C08B10543F1E7A80701D525F026
:100330000405C4F81CA00027C4F818A02A2E09D070
:10034000304604F063F838B304EB8708303EC8F851
:10035000186019E059F8041B204604EB87029161EC
:10036000E1688847012F064618D1E069002820DAA5
:1003700025F020051DE0D8F8180000EB800006EB02
:1003800040003038C8F818002046E1688847064623
:1003900004F03CF80028EED1012F0AD02E2E08D10F
:1003A0002046E16888477F1C0646022F45F020055D
:1003B000C4DBA069002803DA404245F00105A061D2
:1003C000E80701D025F01005A6B1A6F141001928D3
:1003D00002D8203645F400654A463146204625605D
:1003E0004D46FFF7BDFE60B1012807D0ED1D25F099
:1003F000070000E007E000F1080978E705F10409CB
:1004000075E730467AE7206ABDE8F09F5472000035
:100410004FF0000200B5134694469646203922BF9D
:10042000A0E80C50A0E80C50B1F12001BFF4F7AFE8
:10043000090728BFA0E80C5048BF0CC05DF804EBCA
:10044000890028BF40F8042B08BF704748BF20F838
:10045000022B11F0804F18BF00F8012B7047704736
:10046000704770472DE9F0470D469946924604467D
:1004700000F124080168880604D5E06921F0100124
:10048000216000E00120A84201DD471B00E00027B9
:10049000A1697A1902EB0900081AA0612078C00648
:1004A00002D42046FFF7B4FE002608E0D4E901217B
:1004B0001AF806009047206A401C761C20624E45C0
:1004C000F4DB2078C0060AD52046FFF7A1FE06E03F
:1004D000D4E9012130209047206A401C2062381E58
:1004E000A7F10107F4DC07E0D4E9012118F80500C1
:1004F0009047206A401C2062281EA5F10105F3DC0C
:100500002046FFF79BFE2078000602D50220BDE8BA
:10051000F0870120FBE770472DE9FF4F0C461E4690
:100520004FF0FF378BB0D2E90001DDF860800A9010
:100530008A46C1F30A5505B93D46002108464FF0E9
:100540000000BAF1000F00F4400005DA00EB800073
:100550004FF4400101EA50004FEA9059B9F1010F00
:1005600000DDB9460A9850EA4A000ED044F6105011
:10057000A5F2FF3545432F14B8F1000F1ED0754288
:10058000291E1EDDC9F100021CE0B8F1010F4FF079
:10059000000001D0302103E0F24305E02154401C6B
:1005A000B042FBDB30460022002121540B99C1F8F8
:1005B0000880C1E900200FB0BDE8F08FBD1B6D1CA5
:1005C000DEE74A4600DA694206A800F05BFA06ABAD
:1005D00093E8070003AB83E8070050460A9900F050
:1005E0003CFB8DE80700A0F500501F3800900398F1
:1005F000002D0ADD42F21F014A460844002303A9E8
:100600000390684600F0A5FD09E0A0F500504A46B9
:100610001F38002303A90390684600F0AFFD8DE862
:1006200007000004000C03D04FF0FF30410800E049
:100630001046B8F1000F03D00022009215461EE0CC
:10064000751E05D400F098F9303262556D1EF9D54B
:10065000B3460122084302D000227F1C04E0207828
:10066000302801D100227F1E002A099784D01DE086
:10067000112D07DA00F080F9303262556D1C50EA16
:100680000102F5D1084302D00098C8B10EE0002164
:10069000681E05E0235C625C63542254401E491CC2
:1006A0008142F7DBAB46A81B401E0990002004F8EE
:1006B0000B000B98099AC0F80880C0E9002B7AE774
:1006C00011264FF0000857E72DE9F04F8846044601
:1006D000D21D22F0070191B0D1E90001CDE90A0154
:1006E00003F070FE02460B98C00F01D02D2007E0EA
:1006F0002068810701D52B2002E0202101EAC000FB
:10070000032A099001D0072A05DB0346414620460B
:1007100000F078F90BE12078800601D5E06900E06F
:100720000620B8F1650F814606D0B8F1660F18D0E3
:10073000B8F1670F70D131E00020B9F1110F0090CE
:1007400001DB112301E009F101030AAA01A90CA8A8
:10075000FFF7E2FEDDE90C70002609F10105834692
:1007600047E001204B4600904FF000470AAA01A93C
:100770000CA8FFF7D1FEDDE90DB00C995D4600260F
:1007800010B909F101000D18B9EB050003D4C0F14F
:10079000FF3609F10105A5EB09002BE0B9F1010FC6
:1007A00001DA4FF001090020B9F1110F009048461D
:1007B00001DD112300E003460AAA01A90CA8FFF7F6
:1007C000ABFEDDE90C704D4600268346207800071D
:1007D0000AD4AB4500DA5D4601A8012D04DD4119BC
:1007E00011F8011C302907D04F4502DA17F1040F28
:1007F00004DA012082460FE06D1EEEE7002F02DCD6
:10080000ED1B3E4403E0781CA84200DD7D1CB81BB4
:1008100000F1010A4FF000472078000703D4AA45F1
:1008200001DB4FF0FF3A0021B7F1004F0DF1430813
:100830008DF8431024D002202B23002F01DA7F42B1
:100840002D230A21021EA0F1010000DC5FB197FBFD
:10085000F1FC97FBF1F201FB1C7C17460CF1300C0C
:1008600008F801CDEEE7A8F1010003702188090521
:1008700001D5452100E06521A0F1010800F8011C27
:1008800009980FA9A1EB0807FF1D00B1012041192C
:1008900001EBEA70A1693844081A401EA061207873
:1008A000C00602D42046FFF7B3FC099828B1D4E96A
:1008B00001219047206A401C20622078C00622D582
:1008C0002046FFF7A5FC1EE0002E04DBB34502DD49
:1008D00001A8805D00E03020D4E901219047206A22
:1008E000401C2062761CAAF101005FEA000A0AD1CE
:1008F00000F03EF8C0680168405CD4E901219047EF
:10090000206A401C2062281EA5F10105DCDC07E0FE
:10091000D4E9012118F8010B9047206A401C20629D
:10092000381EA7F10107F3DC2046FFF787FC032000
:1009300011B041E601694A1C02610878704700B5B0
:100940008FB0CDE901310021059105497944CDE908
:10095000031011466846FFF7BFFC0FB000BD000052
:10096000E5FFFFFF0A6802F8010B0A60704700000C
:10097000004870479C2E002030B5B0F10A024FEAC3
:10098000900E71F100034EEA817EB0EB0E0061EB38
:1009900091014FEA101E4EEA017E10EB0E0041EB72
:1009A00011114FEA102E4EEA016E10EB0E0041EBD2
:1009B00011214FEA104E4EEA014E10EB0E0041EBB2
:1009C0001141401841F100014FEAD00040EA417066
:1009D0004FEAD10110EB80054FEA810444EA90749C
:1009E00044EB01046D1944EB0404521BA3414FF086
:1009F000000348BF0A3200D530BD401C41F1000160
:100A000030BD00002DE9F0411F4604460326016871
:100A1000072A01F4006004DB08B116A505E016A55D
:100A200003E008B115A500E015A521F01000206035
:100A3000A069C01EA0610FB1401EA0612046FFF753
:100A4000E7FB4FB1D4E9012138469047206A401CAA
:100A50002062C01C206206E0206AFAE7D4E9012186
:100A600015F8010B9047761EF8D22046FFF7E6FBFB
:100A7000BDE8F0814E414E006E616E00494E460069
:100A8000696E66002DE9F047814616468AB0354802
:100A900078440DC88DE80D0032487844801C03ACC2
:100AA0000DC884E80D0041F69B300844372190FBC7
:100AB000F1F290FBF1F5A5F1800501FB12041B3C5E
:100AC00002D56442012000E00020DFF898A08046B3
:100AD0000027FA44AAF1BE0A0EE0E0070AD0324627
:100AE000684607EB470101230AEB810100F046FB52
:100AF0008DE8070064107F1C002CEED1194F7F4455
:100B0000AE3F19E0E80715D007EB04100DF1180A05
:100B100090E80E008AE80E00C068F04201D19819F2
:100B200008903246012306A903A800F027FB03AB77
:100B300083E807006D10641C002DE3D14FF0010322
:100B400032466946B8F1000F03A802D000F001FB5D
:100B500001E000F013FBC9E90001C9F808200AB060
:100B6000BDE8F0873C6B0000004870477C2E0020F9
:100B70007546FFF7F9FFAE4605006946534620F07B
:100B80000700854618B020B5FFF71CFBBDE82040E4
:100B90004FF000064FF000074FF000084FF0000B39
:100BA00021F00701AC46ACE8C009ACE8C009ACE8EC
:100BB000C009ACE8C0098D46704710B50446AFF3D4
:100BC00000802046BDE81040FFF7E7BA4FF0013C37
:100BD00050F8042B51F8043B9A4221D1A2EB0C03AC
:100BE000934313EACC1317D150F8042B51F8043B6C
:100BF0009A4215D1A2EB0C03934313EACC130BD109
:100C000050F8042B51F8043B9A4209D1A2EB0C0393
:100C1000934313EACC13DBD04FF00000704700BFC2
:100C2000D01A01BAB1FA81F101F0180122FA01F0EB
:100C3000CB40C1F12001DBB2C0B2C01A2CFA01F3E3
:100C4000D11A914311EAC311E6D170470149182026
:100C5000ABBEFEE72600020070475FEA400C08BF0B
:100C600091F0000F4FEA8C234FEAC12243EA515121
:100C70004FEA1C5018BF00F5F0404FEA300018BF93
:100C800041F000415FEA6C5C00F02980BCF1FF3F5D
:100C900008BF40F080407047130C06BF12044FF0AD
:100CA000100C4FF0000C130E04BF12020CF1080CD4
:100CB000130F04BF12010CF1040C930F04BF920038
:100CC0000CF1020CD30F04BF52000CF1010C1146C1
:100CD0004FF00002A0F11F00A0EB0C00704711F0D4
:100CE000004F08BF704731F000413FF4D5AF0B0C07
:100CF00006BF09044FF0100C4FF0000C0B0E04BFA0
:100D000009020CF1080C0B0F04BF09010CF1040CD3
:100D10008B0F04BF89000CF1020CCB0F04BF4900FC
:100D20000CF1010CCCF12003A0EB0C0022FA03F330
:100D300002FA0CF241EA030100F10100704720F0D1
:100D40007F4C80EA030023F07F47ACEB070303F5F9
:100D50007C5300F0004003F1FF032DE980494FEA86
:100D6000154B09B44FEA144325EA0B4E24EA034815
:100D70000FF2042606EB132749083E785FEA320299
:100D800003FB0667C7F5000707FB06F64FEA543773
:100D90004FEAD64606F1020607FB066CCCF1005C72
:100DA0004FEA1C472CEA074C07FB06F40CFB06F540
:100DB00004EB15464FEA961634BF00204FF0004072
:100DC0004FEAD13706FB07FC4FEA1C4C0CFB0BF734
:100DD000D21B03FB0CF761EB07010CFB0EF7B0EB2A
:100DE000074072EB17420CFB08F734BFA2EB074237
:100DF000B2EB074261EB17414FEA0C444FEA91070F
:100E000006FB07FC4FEA1C4C0CFB0BF7B0EBC74092
:100E100072EB573203FB0CF734BFA2EBC742B2EBC5
:100E2000C74261EB57310CFB0EF7B0EBC70072EB1A
:100E300057720CFB08F734BFA2EBC702B2EBC70234
:100E400061EB5771039F4FEA816141EA921104EB14
:100E5000CC044FEAD1374FEA826206FB07FC42EA34
:100E600090124FEA80604FEA1C4C0CFB0BF7D21B30
:100E700003FB0CF761EB07010CFB0EF7B0EB07402F
:100E800072EB17420CFB08F734BFA2EB0742B2EB40
:100E9000074261EB17414FEA8C554FEA910704EB8B
:100EA0009C2406FB07FC4FEA1C4C0CFB0BF7B0EB39
:100EB000C74072EB573203FB0CF734BFA2EBC742BB
:100EC000B2EBC74261EB57310CFB0EF7B0EBC7003A
:100ED00072EB57720CFB08F734BFA2EBC702B2EB00
:100EE000C70261EB577115EB4C254FEA816141EA6E
:100EF00092114FEA82624FEAD13742EA901206FB22
:100F000007FC44F100044FEA80604FEA1C4C0CFBE4
:100F10000BF7D21B03FB0CF761EB07010CFB0EF781
:100F2000B0EB074072EB17420CFB08F734BFA2EBA3
:100F30000742B2EB074261EB174115EB1C154FEA74
:100F4000813141EA92414FEA823242EA90424FEACD
:100F500080304FEA0C7644F1000448EA03434EEA3D
:100F60000B484FF0000EB2EB080C71EB030724BFE7
:100F7000624639464EEB0E0E4FF0000B0018524100
:100F800049414BEB0B0BB2EB080C71EB03077BF108
:100F9000000B24BF624639464EEB0E0E4FF0000B9D
:100FA0000018524149414BEB0B0BB2EB080C71EBB3
:100FB00003077BF1000B24BF624639464EEB0E0E51
:100FC00051EA020718BF46F0010616EB0E7655F1FE
:100FD000000254F1000103D5BDE88901BDE8008895
:100FE000BDE88901BDE80048B619524141EB010155
:100FF000A3F10103704780807F7E7D7C7B7A7978C6
:10100000777676757473727171706F6E6E6D6C6CCD
:101010006B6A6A696868676666656464636362616F
:101020006160605F5F5E5E5D5D5C5C5B5B5A5A59F0
:10103000595858575756565555555454535352525C
:101040005251515050504F4F4F4E4E4D4D4D4C4CB4
:101050004C4B4B4B4A4A4A494949484848474747FD
:10106000474646464545454444444443434343423A
:10107000424242414141002B9C4630D477002BD064
:101080001CB54FEA370703B44FF010004FF01001C2
:10109000BAF1000F06D0BCF1000FDCBF40F0080031
:1010A00040F008014FF000000FBCBDE810400BF10C
:1010B000010BBBF1010F08BF5FEA170722BF12F156
:1010C000010211F101014FF0004143F1000300F072
:1010D000004043EA00007047F9D35708D0E746EADA
:1010E000064613F1400F4FEA16461FDD13F1200F9D
:1010F000DFBF16430A46002120335B42BED0C3F156
:10110000200746EA064602FA07F74FEA164646EA7D
:101110000706C3F1200722FA03F201FA07F721FAC2
:1011200003F14FF0000342EA0702A7E746EA02068E
:1011300046EA06464FEA164646EA0106BCBF46EABC
:101140000646360C4FF000034FF000024FF000014E
:1011500094E72DE9804C9A46934670B491E83800A4
:1011600007C831EA400C48BF34EA430C03D5FFF707
:10117000E6FDFFF780FFF0BCBDE8008C2DE9804C58
:101180009A46934670B491E8380007C810F0804F33
:1011900008BF13F0804F03D100F005F8FFF76BFF95
:1011A000F0BCBDE8008C20F07F4780EA030023F00C
:1011B0007F4C07EB0C03A3F57C5300F00040A3F138
:1011C000FE0392F0000F00F0B38095F0000F00F0E6
:1011D00077802DE901494FEA11404FEA144621EA90
:1011E000004800FB06FC24EA064708FB06F607FB5E
:1011F00008F800FB07F718EB06484CEB164C4FEAD3
:10120000124B18EB07484FEA15464CEB174022EA01
:101210000B4E0BFB06FC25EA06470EFB06F607FB0A
:101220000EFE0BFB07F71EEB064E4CEB164C4FF079
:1012300000061EEB074E4CEB174B18EB0B0840F16A
:10124000000018EB0E0B58EB000840F100008F1A5D
:101250004FF000013CBFC943661B14BFB5EB040C43
:1012600000213CBFC943F61B4FEA17444EEA8E0EDD
:1012700027EA04454FEA1C4704FB07622CEA074CA7
:1012800005FB07F70CFB05F604FB0CFC16EB074609
:1012900042EB174216EB0C4642EB1C421BEB0606D8
:1012A00058EB0202414146EA9E0601D5BDE801899C
:1012B000B619524141EB0101A3F10103BDE80189D7
:1012C0004FEA14454FEA114724EA054621EA074C44
:1012D00005FB07F406FB07F70CFB06F105FB0CFC0E
:1012E00011EB074144EB17444FEA124711EB0C4155
:1012F00044EB1C4422EA074C05FB07F206FB07F708
:101300000CFB06F605FB0CFC16EB074642EB1742FE
:1013100016EB0C4642EB1C456A1854F1000148BF1D
:101320007047B619524141EB0101A3F10103704727
:1013300095F0000F37D04FEA11424FEA144721EAE7
:10134000024624EA074C02FB07F106FB07F70CFBF9
:1013500006F402FB0CFC14EB074441EB17414FEA87
:10136000154714EB0C4441EB1C4125EA074C02FBEA
:1013700007F506FB07F70CFB06F602FB0CFC16EB69
:10138000074645EB174516EB0C4645EB1C42121978
:1013900051F1000148BF7047B619524141EB0101BC
:1013A000A3F1010370474FEA14454FEA114724EABD
:1013B000054621EA074C05FB07F106FB07F70CFB86
:1013C00006F24FF0000605FB0CFC12EB074241EB66
:1013D000174112EB0C4251EB1C4148BF7047921869
:1013E00041EB0101A3F10103704700000122110349
:1013F000014800F02EBB0000000C014000224FF419
:101400008051014800F025BB000C014010B50020C0
:1014100000F03CF8E52800D0FEE70A212C2000F07F
:101420006DF80121312000F069F80821BDE8104075
:101430002D2000F063B81CB5044606226946322010
:1014400000F00AF8BDF800002080BDF802006080BE
:10145000BDF80400A0801CBD38B540F0C0001446A3
:101460000D468DF80000FFF7C9FF6423012269468D
:10147000054801F011FA642322462946024801F08A
:1014800061F9FFF7B3FF38BD682D00201CB540F0AF
:1014900080008DF8040000208DF80000FFF7AEFFFB
:1014A0006423012201A9074801F0F6F9642301220F
:1014B0006946044801F046F9FFF798FF9DF80000DF
:1014C0001CBD0000682D002010B541B14FF07054D4
:1014D00001290CD0022905D0032908D105E04FF0DD
:1014E0006E5404E04FF0725401E04FF0745403F076
:1014F0001DFF2146BDE8104003F044BF08B58DF83C
:1015000000008DF80110FFF779FF6423022269467D
:10151000024801F0C1F9FFF769FF08BD682D0020FE
:1015200000F00F01000900EB800001EB4000C0B2A9
:101530007047FEE770B5002402F08EFD124D04E006
:10154000641CE4B2012002F069FF1021284600F07B
:101550007BFA10B1642CF3D30FE0642C0DD200247D
:1015600004E0641CE4B2012002F058FF1021284678
:1015700000F06AFA18B1F02C04D3012070BDF02CF1
:10158000EFD3FAE7002070BD000801400A21B0FB4C
:10159000F1F201FB1202B0FBF1F042EA0010C0B21E
:1015A0007047000010B586B004466422072103A8E6
:1015B0008DE8070001230022D021184800F018FB15
:1015C000020028D19DF80C0000F07F00FFF7A8FF73
:1015D00020709DF80D00FFF7A3FF60709DF80E00CE
:1015E00000F03F00FFF79CFFA0709DF80F00FFF791
:1015F00097FFE0709DF81000FFF792FF20719DF8B3
:10160000110000F01F00FFF78BFF60719DF81200C2
:10161000FFF786FFA07106B0104610BD142D002004
:1016200000B5034685B00078FFF7B0FF8DF80C00D9
:101630005878FFF7ABFF8DF80D009878FFF7A6FFFD
:101640008DF80E00D878FFF7A1FF8DF80F001879FC
:10165000FFF79CFF8DF810005879FFF797FF8DF882
:1016600011009879FFF792FF8DF812004FF0FF32CA
:10167000072103A88DE8070001230022D02102489A
:1016800000F0E4FB05B000BD142D002010B500F003
:101690002FF8BDE81040FFF74DBF00002DE9F041E5
:1016A0000026124F354600BF02F0F2FC0022102146
:1016B000384600F0CEF90A2002F0B0FE02F0CCFC71
:1016C0001021384600F0C0F901280DD000242D204B
:1016D00002F0A4FEAC4034436D1CEDB2E6B2082D1E
:1016E000E2D33046BDE8F0810124F0E70008014074
:1016F00010B502F0CDFC0A4C00221021204600F06B
:10170000A8F940F2EE2002F089FE012210212046C5
:1017100000F09FF9BDE810400F2002F07FBE0000EE
:101720000008014070B5054602F0B2FC134E0124DA
:1017300025424FF000024FF0100130460BD100F06F
:1017400088F9462002F06AFE01221021304600F09E
:1017500080F902200AE000F07CF9092002F05EFE28
:1017600001221021304600F074F9372002F056FEB5
:10177000600010F0FF04DBD170BD000000080140E4
:1017800070474FF4806000F063B810B54FF480707C
:1017900000F05EF8BDE810404FF4007000F058B85B
:1017A00072B6FEE710B5FFF7A3FFFFF7C3FECC202C
:1017B000FFF7B8FF4420FFF7B5FF4FF4AF7002F01A
:1017C0002DFEFFF795FFFFF7B5FECC20FFF7AAFF30
:1017D000BE20FFF7A7FFFFF761FF0446FFF75EFF9C
:1017E000000201B251EA04006FF0030401D5C043C6
:1017F000401C03F025FC224603F0C4FEBDE8104067
:1018000003F0E4BB70B5044600F028F90546601CFF
:1018100002D004480078044400F020F9401BA042A4
:10182000FAD370BD300000200849B0F5806F08D0B1
:10183000B0F5007F07D0B0F5807F01D1032008709C
:1018400070470120FBE70220F9E700002D0000208F
:10185000044910B50A68024202D00860FFF7E4FFAD
:1018600010BD0000140401402DE9F84FDFF8B891D5
:101870000024A9F1040B23460F2709F1040AABF158
:10188000040EC9E00125A5402A40AA427DD1674E39
:10189000D1F804C0ACEB0608B44532D014DCBCF17E
:1018A000030F3AD009DCBCF1000F2AD0BCF1010FC4
:1018B0001CD0BCF1020F31D11DE0BCF1110F17D0CB
:1018C000BCF1120F2AD119E0B8F5881F19D006DC37
:1018D000B8F5803F15D0B8F5801F1FD111E0B8F5DD
:1018E000001F0ED0B8F5041F18D10AE0CB6815E030
:1018F000CB681B1D12E0CB6808330FE0CB680C33BC
:101900000CE08B682BB1012B4FF0080303D045612D
:1019100004E0042302E0056100E00023FF2A01D86F
:10192000064601E000F104064FEA840501D9A5F15D
:101930002005D6F8008007FA05FC28EA0C0803FA0F
:1019400005F548EA0508C6F800804D68ED0062D547
:10195000374DAE6946F00106AE61AD6924F003066D
:1019600005F001050095334D06EB050CDCF8085039
:10197000A607360F07FA06F825EA0805DFF8B8804B
:10198000404503D14FF0000817E044E0DFF8AC8099
:10199000404502D14FF001080FE0DFF8A480404538
:1019A00002D14FF0020808E0DFF89880404502D1EC
:1019B0004FF0030801E04FF0040808FA06F848EA7F
:1019C0000508CCF808804D68D9F80060ED024D4656
:1019D00001D5164300E096432E604D68DAF80060AA
:1019E000AD02554601D5164300E096432E604D6882
:1019F000DBF80060AD035D4601D5164300E0964379
:101A00002E604D68DEF80060ED03754601D5164383
:101A100000E096432E60641C0D682A46E5407FF482
:101A200031AFBDE8F88F000008040140000011103C
:101A3000001002400000014000080140000C01407D
:101A400000100140001401408068084000D00120CF
:101A500070470AB1016170470904FBE701488068DB
:101A6000704700003000002070B5040025D094F8C5
:101A70003D00002520B984F83C50204600F07EFA55
:101A8000242084F83D002068016821F001010160F4
:101A90002068016841F4004101602068016821F478
:101AA0000041016000F0E4FB4D4A6168914201D8B9
:101AB0004C4900E04C49884201D2012070BD4B499D
:101AC0002368B0FBF1F15E6826F03F060E435E60CE
:101AD0006368934206D94FF4967359434FF47A736F
:101AE000B1FBF3F12368491C1E6A26F03F0631431F
:101AF00019626168914210D84900401EB0FBF1F2B2
:101B0000521CC2F30B02042A01D2042022E0B0FBD3
:101B1000F1F0401CC0F30B001CE0A268F2B301EB33
:101B2000C10303EB0116431EB3FBF6F35B1C43F446
:101B300080431B0549D092B301EBC10202EB0111B6
:101B4000401EB0FBF1F0401CC0F30B0040F480409D
:101B500040F400402168CA694CF6FF739A43104371
:101B6000C861D4E9071001432068026822F0C0026E
:101B700011430160D4E9030101432068826848F2FF
:101B8000FF339A4311438160D4E90501084321687A
:101B9000CA6822F0FF021043C86001E00EE016E0C0
:101BA0002068016841F0010101602564202084F86B
:101BB0003D00256384F83E50002070BD01EB4106D6
:101BC000431EB3FBF6F35B1CB3E70120C2E701EB56
:101BD0004101401EB0FBF1F0401CC0F30B00B7E721
:101BE000A086010080841E0000093D0040420F00D5
:101BF0002DE9FF4F83B00025DDE910799A46934621
:101C00000446DDF848800095FFF728FF064694F863
:101C10003D0020287CD119230122884920460096C6
:101C200001F090FB0028F5D194F83C0001286FD01A
:101C3000012084F83C0020680168C90703D10168CD
:101C400041F0010101602068016821F40061016038
:101C5000222084F83D00402084F83E00256467621D
:101C6000A4F82A90608D20857548E062CDE9008651
:101C700053465A462046049901F066FA00287CD162
:101C8000208DDFF8C091202768B1012814D00228E8
:101C9000206801681ED041F48061016020684169BC
:101CA00080690090BCE02068416981690091016809
:101CB00041F400710160B3E02068016821F48061A3
:101CC000016072B62068416981690091016841F440
:101CD00000710AE041F40061016072B62068416958
:101CE00081690091016821F48061016062B697E02A
:101CF000032865D801280CD0022843464FF0000283
:101D00004946204600960BD001F01CFBA8BB0CE016
:101D100091E032464146204601F0BAFB68BB72E0D2
:101D200001F010FB48BB72B633E02068016821F473
:101D30008061016072B620680069616A0870606A3B
:101D4000401C6062208D401E2085608D401E608595
:101D50003D4846F2A8110068B0FBF1F0C0EBC000AE
:101D600000EB80000090401E009007D02068406982
:101D7000C04340070DD50098F5E727E044F8305FF1
:101D80006773A573206940F02000206162B6257357
:101D90001CE02068016841F400710160206800695E
:101DA000616A0870606A401C6062218D491E21854D
:101DB000618D491E618562B621680969017026E05E
:101DC00032464146204601F063FB18B1012007B0BE
:101DD000BDE8F08F20680069616A0870606A401C85
:101DE0006062208D401E81B22185608D401E60851D
:101DF00020684269D243520712D4032903D10168F3
:101E000021F48061016020680069616A0870606A7D
:101E1000401C6062208D401E2085608D401E6085C4
:101E2000208D00287FF464AF84F83D7084F83E5024
:101E300084F83C50CBE70220C9E700000200100004
:101E40000000FFFF040001003C0000202DE9FF4FCF
:101E500083B09A46DDE9119793460446DDF8408049
:101E6000FFF7FCFD054694F83D0020287FD119239B
:101E7000012240492046009501F064FA002876D1FD
:101E800094F83C00012872D0012084F83C002068BE
:101E90000168C90703D1016841F0010101602068B0
:101EA000016821F400610160212084F83D00402098
:101EB00084F83E0000262664C4F82480A4F82A9002
:101EC000608D20852C48E062CDE9007553465A4666
:101ED0002046049901F0B6F970B930E02A46394637
:101EE000204601F00DFB58B1206C042804D1206875
:101EF000016841F400710160012007B0BDE8F08F76
:101F0000606A216800780861606A401C6062218D07
:101F1000491E89B22185628D521E628522685369ED
:101F2000DB435B070BD469B100781061606A401C29
:101F30006062208D401E2085608D401E6085208D52
:101F40000028CBD12A463946204601F0CFF9002897
:101F5000CAD154F83D0B016841F4007101602020A2
:101F600004F81E09E67766770020C6E7FFE702203F
:101F7000C3E70000020010000000FFFF30B585B08D
:101F8000002100910191029103911E4D03681E4CA6
:101F9000122103221D48AB4216D1A36943F0080366
:101FA000A361A369039203F008030493C023CDE95E
:101FB00000316946FFF758FCE06940F40010E06129
:101FC000E06900F4001019E0114DAB4217D1A3698C
:101FD00043F00803A361A369039203F00803049389
:101FE0004FF44063CDE900316946FFF73DFCE069FD
:101FF00040F48000E061E06900F48000049005B0E6
:1020000030BD00000054004000100240000C0140B0
:10201000005800400248816802781144816070478E
:1020200030000020074810B5016841F01001016040
:10203000032000F075F80F2000F006F800F024F8F7
:10204000002010BD0020024070B50D4D04464FF435
:102050007A712878B1FBF0F00A490968B1FBF0F019
:1020600000F0C5FD48B9102C07D200222146501EB1
:1020700000F036F800206C6070BD012070BD0000DB
:10208000300000203C0000200C4808B5816941F078
:1020900001018161816901F001010091C16941F093
:1020A0008051C161C06900F08050009004484168CF
:1020B00021F0E06141F00071416008BD0010024074
:1020C00000000140002809DB00F01F0201219140BF
:1020D0004009800000F1E020C0F8001170470000C6
:1020E000F0B40E4B1B680C46C3F30223C3F1070583
:1020F000042D00D90425191D072901D2002300E071
:10210000DB1E012606FA05F1491E214099409E403A
:10211000761E16403143F0BC02F068B90CED00E0C9
:10212000064900F0070208684FF6FF03184040EA2E
:102130000220034A10430860704700000CED00E0E5
:102140000000FA052DE9F0470F46050061D0434E27
:10215000306800F00700B84209D2306820F007006C
:1021600038433060306800F00700B84251D1286829
:102170003B4C810712D5400703D5606840F4E0600E
:1021800060602878000703D5606840F460506060A4
:102190006068A96820F0F000084360602878C007F4
:1021A00028D06868012810D02168022810D089073B
:1021B00000292EDA616821F0030101436160FFF715
:1021C0004DFC804641F288390DE021688903EFE734
:1021D0008901EDE7FFF742FCA0EB0801494502D970
:1021E0000320BDE8F0876068696800F00C00B0EB80
:1021F000810FEFD1306800F00700B8420BD930688A
:1022000020F0070038433060306800F00700B84223
:1022100001D00120E5E72878400705D56068E96826
:1022200020F4E060084360602878000706D5606805
:10223000296920F4605040EAC100606000F038F87D
:102240006168084AC1F30311515CC840064908603F
:1022500006480068FFF7F8FE0020C2E700200240B1
:1022600000100240287500083C00002034000020C7
:102270000448054900684968044AC1F30221515CD9
:10228000C84070473C00002000100240387500082C
:102290000448054900684968044AC1F3C221515CF9
:1022A000C84070473C00002000100240387500080C
:1022B0000E4A51680E4801F00C03042B11D0082B74
:1022C0000FD10C48C1F38343C903C05C0AD55168E0
:1022D000084AC1F34041921E515C054A5043B0FB8D
:1022E000F1F0704704494843704700000010024075
:1022F00000127A001875000800093D002DE9F84F1A
:10230000040070D02078C04DC00749D06868C0F381
:102310008100012807D06868C0F38100022809D134
:102320006868C00306D52868800339D5606800282E
:10233000E7D035E06068B0F5803F0BD010B1B0F564
:10234000A02F11D0286820F480302860286820F45D
:10235000802002E0286840F480302860606890B1F6
:10236000FFF77CFB06460AE0286840F480202860DE
:10237000F0E700BFFFF772FB801B642873D8286862
:102380008003F7D50CE0FFF769FB064605E000BFC8
:10239000FFF764FB801B6428F0D828688003F7D41B
:1023A00020789A4E80074FF001094FF0000839D588
:1023B000686810F00C0F07D06868C0F3810002282D
:1023C00009D16868C00306D42868800714D520693D
:1023D000012808D110E02069B0B1C6F80090FFF7DD
:1023E0003DFB074605E00AE1FFF738FBC01B02286A
:1023F000C4D828688007F7D52868616920F0F800FC
:1024000040EAC10028600DE0C6F80080FFF726FB17
:10241000074604E0FFF722FBC01B022823D82868E8
:102420008007F7D4207800072CD57948A169D9B165
:10243000C0F80090FFF712FB074604E0FFF70EFB21
:10244000C01B02280FD8686A8007F7D571484FF47F
:10245000FA510068B0FBF1F0009000BF0098411EF7
:102460000091FAD20EE080E0C0F80080FFF7F6FAA3
:10247000074604E0FFF7F2FAC01B022875D8686A25
:102480008007F7D42078400760D5E8690027C000AE
:1024900008D4E86940F08050E861E869012700F05D
:1024A000805000905C480168C90513D401688346D8
:1024B00041F480710160FFF7D1FA824606E000BF67
:1024C000FFF7CCFAA0EB0A0064284ED8DBF8000036
:1024D000C005F5D5E06801280AD008B1052813D059
:1024E000286A20F001002862286A20F0040002E037
:1024F000286A40F001002862E06841F2883B98B108
:10250000FFF7ACFA82460BE0286A40F0040028622C
:10251000EEE700BFFFF7A2FAA0EB0A0159455AD82F
:10252000286A8007F6D50CE0FFF798FA824605E0A6
:10253000FFF794FAA0EB0A0159454CD8286A8007A6
:10254000F6D41FB1E86920F08050E861E06988B3F3
:102550006968C1F38101022944D00228C6F860806D
:1025600004D0FFF77BFA044638E034E0FFF776FA50
:10257000074604E0FFF772FAC01B02282BD8286830
:102580008001F7D4206AB0F5803F05D16868A16862
:1025900020F4003008436860D4E908010843696802
:1025A00021F4741108436860C6F86090FFF756FA8A
:1025B000044606E025E000BFFFF750FA001B0228A2
:1025C00009D828688001F7D51BE000BFFFF746FA5D
:1025D000001B022802D90320BDE8F88F286880017B
:1025E000F4D40EE00128F7D06868226A00F4803144
:1025F000914204D1616A00F47010884201D0012038
:10260000EAE70020E8E70000001002400000424234
:10261000800442423C0000200070004070B504007D
:1026200009D0606A002540B125616561A56294F812
:10263000510040B10CE0012070BD6068B0F5827FB0
:10264000F4D0E561F2E784F85050204600F040F8FD
:10265000022084F851002068016821F040010160E7
:10266000A088218900F4827001F404410843A18903
:1026700001F400610843217C01F002010843217D3F
:1026800001F001010843218B01F400710843217F0F
:1026900001F03801084394F8201001F0800108434C
:1026A000218D01F40051084321680860A0690421CC
:1026B00001EA1040216848602068C16921F4006186
:1026C000C1616565012084F85100002070BD0000E3
:1026D00030B585B0002400940194029403940068FE
:1026E0001549884225D11548C16941F48041C1612D
:1026F000C16901F480410491816941F0080181615F
:1027000080690F4D00F0080004904FF420400090C5
:10271000022001900320039069462846FFF7A4F8A1
:102720004FF48040CDE90004694628460294FFF743
:102730009BF805B030BD000000380040001002409A
:10274000000C01402DE9F84F044690F851001D4659
:1027500016460F46012838D160684FF00408B0F5DE
:10276000827F01D1A06830B3FFF778F98246002F4D
:1027700075D0002E73D094F85000012825D04FF06A
:10278000010984F8509084F851804FF00008C4F893
:102790005480A763A687E687C4F83080A4F8348005
:1027A000A4F83680C4F84080C4F84480A068B0F52E
:1027B000004F0CD015E084F85180009313460A4670
:1027C000204600F01CF9BDE8F88F0220FBE72068E6
:1027D000016821F0400101602068016821F4804116
:1027E000016020680168490603D4016841F0400196
:1027F0000160E068C0B134E020688168C90709D091
:10280000007BA16B0870A06B401CA063E08F401E92
:10281000E08709E0FFF722F9A0EB0A00A84202D303
:10282000681C01D032E085B3E08F0028E4D11BE0C2
:1028300020688168C90709D0C068A16B0880A06BB7
:10284000801CA063E08F401EE0870AE0FFF706F9D6
:10285000A0EB0A00A84203D3681C02D016E012E0E5
:102860009DB1E08F0028E3D152462946204601F071
:102870004CFB08B12020606584F8519084F85080AA
:10288000606D00289FD001209DE7FFE784F85190FC
:1028900084F85080032096E72DE9F84F98461646B5
:1028A0008A460446FFF7DAF8814694F85100012879
:1028B0001ED1BAF1000F73D0002E71D094F85000E1
:1028C000012815D0012784F85070032084F85100A6
:1028D00000256565C4F830A0A686E686A563A587B1
:1028E000E58765642564A068B0F5004F03D00CE06F
:1028F0000220BDE8F88F2068016821F040010160E6
:102900002068016841F4804101602068016849063F
:1029100003D4016841F040010160E068B0F5006F48
:10292000606803D048B3012E27D047E008B1012EDC
:102930001FD1206B21680088C86006E0206881688C
:10294000890709D5216B0988C160206B801C206331
:10295000E08E401EE0860CE0FFF780F8A0EB090156
:10296000414503D3B8F1FF3F03D035E0B8F1000F84
:1029700032D0E08E0028E1D123E0206B216800787E
:10298000087306E02068816889070AD5216B0978F9
:102990000173206B401C2063E08E401EE0860DE03A
:1029A0002BE0FFF75BF8A0EB0901414503D3B8F139
:1029B000FF3F03D010E0B8F1000F0DD0E08E0028EB
:1029C000E0D14A464146204601F0CDFA08B1202028
:1029D0006065A06830B109E084F8517084F8505007
:1029E000032086E72068C1688068009084F85170F1
:1029F00004F8505F60680028F3D0012079E72DE9E2
:102A0000FF4F81B01D46934604464FF001090E9ECC
:102A1000FFF724F8074694F851006168012806D0B2
:102A2000B1F5827F3CD1A168C9BB042838D1029896
:102A3000002871D0BBF1000FFBD0002DF9D094F825
:102A4000500001282CD04FF0010A84F850A094F8CF
:102A50005100042802D0052084F851004FF00008EE
:102A6000C4F85480C4F838B0E587A587029921637B
:102A7000E586A586C4F84080C4F8448020680168D3
:102A8000490603D4016841F040010160E068B0F5F7
:102A9000006F606808D0F0B3012D49D081E0FFE7F6
:102AA000022005B0BDE8F08F08B1012D39D1206BAF
:102AB00021680088C860206B801C2063E08E401E67
:102AC000E0862EE02068816889070FD5E18E69B124
:102AD000B9F1010F0AD1216B0988C160206B801CFC
:102AE0002063E08E401EE0864FF000092068816878
:102AF000C9070CD0E18F51B1C068A16B0880A06BF1
:102B0000801CA063E08F401EE0874FF00109FEF7B4
:102B1000A5FFC01B01E00BE067E0B04201D3701CD1
:102B200050D1E08E0028CDD1E08F0028CAD13EE000
:102B3000206B216800780873206B401C2063E08EB6
:102B4000401EE0862DE02068816889070FD5E18E60
:102B500069B1B9F1010F0AD1216B09780173206BBA
:102B6000401C2063E08E401EE0864FF00009206884
:102B70008168C9070CD0E18F51B1C068A16B0870A2
:102B8000A06B401CA063E08F401EE0874FF001095E
:102B9000FEF764FFC01BB04202D3701C01D011E0ED
:102BA00086B1E08E0028CED1E08F0028CBD13A4606
:102BB0003146204601F0D7F950B12020606584F8F5
:102BC000508012E084F851A084F85080032068E718
:102BD000A06818B92068C1688068009084F851A086
:102BE00084F85080606D0028F1D0012059E710B5BD
:102BF000401EB0F1807F01D3012010BD4FF0E024D2
:102C000060610F21601701F0F1FB0020A061072037
:102C10002061002010BD70477047000070B590F82B
:102C20003C20012A26D0012480F83C40022280F872
:102C30003D2003685A689D6822F070060A68324396
:102C40005A600D4B02689A4208D0B2F1804F05D00D
:102C50000A4B9A4202D00A4B9A4204D1496825F0A5
:102C600080031943916080F83D40002180F83C10BA
:102C7000084670BD022070BD002C014000040040D9
:102C80000008004010B5040003D094F83D0010B1D6
:102C900007E0012010BD002084F83C00204600F031
:102CA0001FF8022084F83D00211D206801F05CFA25
:102CB000012084F8460084F83E0084F83F0084F840
:102CC000400084F8410084F8420084F8430084F80E
:102CD000440084F8450084F83D00002010BD000049
:102CE00008B500680B49884212D10B48816941F44C
:102CF000006181618069002200F40060009011464B
:102D00001920FFF7EDF9BDE808401920FFF7DAB9FF
:102D100008BD0000002C01400010024090F83D105A
:102D2000012901D001207047022180F83D1001687F
:102D3000CA6842F00102CA6000680B49884208D0A4
:102D4000B0F1804F05D00949884202D00849884235
:102D500004D1816801F00701062903D0016841F020
:102D60000101016000207047002C01400004004078
:102D70000008004070B5044690F83C00002501288A
:102D800017D0012684F83C60022084F83D002068BA
:102D9000826822F0770222F47F428260086850281D
:102DA00038D00DDC20284FD005DC90B3102811D18D
:102DB0004AE0022070BD302846D040280AD13BE0CE
:102DC00060282FD070280DD0B0F5805F03D0B0F50B
:102DD000005F12D0012584F83D60002084F83C009B
:102DE000284670BDCB68D1E90121206801F0F8F9CF
:102DF0002068816841F0770109E0CB68D1E90121C1
:102E0000206801F0EDF92068816841F4804181601B
:102E1000E1E719E0CA684968206801F0F3F9502138
:102E2000206806E0CA684968206801F0FCF9602162
:102E3000206801F0DFF9CEE7CA684968206801F030
:102E4000E1F940212068F4E7226801461046F0E7E6
:102E500070472DE9F04104460068C66805694FF0E7
:102E60000007A90713D5B10711D5F91E016101208B
:102E70002077206880698007204602D0FFF7E8FFAE
:102E800004E000F07EF8204600F07CF82777680721
:102E900016D5700714D521686FF004000861022070
:102EA00020772068806910F4407F204602D0FFF729
:102EB000CFFF04E000F065F8204600F063F82777C4
:102EC000280715D5300713D521686FF00800086171
:102ED000042020772068C0698007204602D0FFF7D1
:102EE000B7FF04E000F04DF8204600F04BF82777DC
:102EF000E80616D5F00614D521686FF010000861B9
:102F0000082020772068C06910F4407F204602D056
:102F1000FFF79EFF04E000F034F8204600F032F89E
:102F20002777E80708D0F00706D021686FF0010086
:102F30000861204600F028F8280608D5300606D596
:102F400021686FF0800008612046FFF764FE680684
:102F500008D5700606D521686FF04000086120464C
:102F600000F01EF8A8060AD5B00608D521686FF053
:102F7000200008612046BDE8F041FFF74DBEBDE8E6
:102F8000F08170477047000000680349884202D111
:102F90000249012008707047002C01402E000020DB
:102FA000704770B5040004D094F84100002510B1BA
:102FB00006E0012070BD84F84050204600F024F85F
:102FC000242084F841002068C16821F40051C160C8
:102FD000204601F061F92068016921F49041016106
:102FE0002068416921F02A0141612068C16841F4EB
:102FF0000051C1606564202084F8410084F84200DB
:103000006563002070BD000030B585B000240094D9
:1030100001940294039400681449884223D114480F
:10302000C16941F40031C161C16901F40031049109
:10303000816941F00401816180690E4D00F0040056
:103040000490042000900220019003200390694620
:103050002846FEF709FC0820CDE900046946284609
:103060000294FEF701FC05B030BD000000440040B2
:1030700000100240000801402DE9F843044690F892
:103080004100984616460D46202802D00220BDE891
:10309000F88385B17EB100206064212084F841006E
:1030A000FEF7DCFCA6848146E684A0682027B0F504
:1030B000805F02D003E00120E9E7206910B12E46CD
:1030C00000250EE000260CE08021204601F040F9AA
:1030D000A8B9C6B116F8010B21684860E08C401E03
:1030E000E084E08C4B464FF00002CDF800800028D1
:1030F000EAD14FF04001204601F02AF940B184F8AE
:1031000041700320C3E735F8020BC0F30800E3E782
:1031100084F841700020BAE7FEE701684A69D243AB
:1031200052050FD46FF480624A61002140F8301FCD
:10313000202242738173026942F00402026101732A
:1031400001207047002070472DE9F84F04460068C1
:1031500089460B9D01689846174641F480610160DD
:103160002068016841F48071016000954FF0011BF7
:103170000022594620460A9B00F0E4F84FF4007AFA
:1031800040B120680068C00501D5C4F840A0032004
:10319000BDE8F88F216809F0FE0008612B46284938
:1031A00020460A9A00F016F9F0BB20684169806950
:1031B00000902A4620460A9900F0A2F940B1206CFE
:1031C00004283AD12068016841F40071016034E0BC
:1031D000FEB2B8F1010F09D02168380A08612A4609
:1031E00020460A9900F08CF90028E8D12068066191
:1031F0002A4620460A9900F083F90028DFD120688A
:10320000016841F480710160009500225946204612
:103210000A9B00F097F80028B3D1216809F0FF005D
:1032200040F00100086100E007E02B460449204619
:103230000A9A00F0CFF80028AAD00120A8E70000E1
:10324000020001002DE9F843044600680D46DDE95F
:10325000089701689846164641F4807101604B4614
:1032600000224FF001112046009700F06BF848B1A2
:1032700020680068C00502D54FF400702064032068
:10328000BDE8F883216805F0FE0008613B464A4628
:103290001549204600F09EF888B920684169806988
:1032A00000903A464946204600F02AF948B1206C81
:1032B000042804D12068016841F4007101600120F4
:1032C000DEE7F5B2B8F1010F09D02168300A0861D4
:1032D0003A464946204600F013F90028E7D1206815
:1032E00005610020CCE700000200010070B5164621
:1032F0000D4604461EE02046FFF70FFF08B10120EF
:1033000070BD681C16D0FEF7A9FB801BA84200D830
:1033100085B920684069C04340070BD5002044F8B8
:10332000300F20216173A073216941F020012161D8
:103330002073E4E720684069C0434007DBD40020E5
:1033400070BD00002DE9F047984617460D4604462B
:10335000C1F30746DDF820902AE000BFB8F1FF3F37
:1033600026D0FEF77BFBA0EB0901414502D8B8F15E
:10337000000F1DD12068012E16D0806925EA0000BB
:103380000004000C12D00020B84211D1002044F8F3
:10339000300F20216173A073216941F02001216168
:1033A00020730120BDE8F0874069E7E70120EBE7E3
:1033B0002068012E0AD0806925EA00000004000C74
:1033C00006D00020B842C9D00020EBE74069F3E7FF
:1033D0000120F7E72DE9F047984616460D460446CA
:1033E0004FF000094FF0200AC1F3074723E020689F
:1033F0004069C043400515D42068016841F400715C
:10340000016021686FF480604861C4F8309084F8EE
:103410003DA084F83E90216C41F00401216484F8C1
:103420003C9021E0701C06D0FEF718FBA0EB0800D2
:10343000B04203D816B1012F1FD021E02068012F20
:1034400015D0806925EA00000004000C18D000BFE8
:1034500044F8309F84F80DA084F80E90216941F063
:103460002001216184F80C900120BDE8F0874069BB
:1034700025EA00000004000CEAD12068406901E060
:103480002068806925EA00000004000CAFD1ECE759
:103490002DE9F041002590460E460446202728E0FD
:1034A0004069C043C0060CD454F8301B6FF01000C4
:1034B000486144F810596777A577206A206225771C
:1034C00014E0FEF7CBFAA0EB0800B04200D886B9B2
:1034D00020684069C04340060BD544F8305F6773ED
:1034E000A573206940F02000206125730120BDE80C
:1034F000F08120684169C9434906D1D40020F6E72C
:1035000070B516460D4604461EE02046FFF705FE40
:1035100008B1012070BD681C16D0FEF79FFA801B11
:10352000A84200D885B920684069C04300060BD581
:10353000002044F8300F20216173A073216941F00D
:10354000200121612073E4E720684069C043000640
:10355000DBD4002070BD00002DE9F04786B00025C7
:1035600042480095019502950395816941F010014B
:103570008161816901F010010491816941F02001AC
:103580008161816901F020010491816941F00401A8
:103590008161816901F004010491816941F00801B0
:1035A00081618069DFF8C88000F008004FF4604452
:1035B0000490012221464046FEF74BFADFF8B49012
:1035C000012273214846FEF744FA0122DFF8A8A041
:1035D000170339465046FEF73CFA009401240326AF
:1035E000CDE90246694640460194FEF73DF9632065
:1035F000CDE90004CDE9024669464846FEF734F9B4
:1036000010208DE83100694648460394FEF72CF9F6
:10361000CDE90074CDE9024669465046FEF724F92B
:103620004FF4E06000901548CDE901046946484632
:10363000FEF71AF92020CDE90005694650460295AB
:10364000FEF712F9002201211720FEF749FD17208D
:10365000FEF738FD002202212820FEF741FD282038
:10366000FEF730FD06B0BDE8F08700000010024014
:103670000010014000080140000C01400000211032
:103680000D4810B50B4901600C49416000214FF411
:1036900080428160C0E9031241618161C1610162C0
:1036A000FEF7E2F9002803D0BDE81040FEF778B835
:1036B00010BD000000540040C02C0020A086010076
:1036C0000D4810B50B4901600C49416000214FF4D1
:1036D00080428160C0E9031241618161C161016280
:1036E000FEF7C2F9002803D0BDE81040FEF758B835
:1036F00010BD000000580040142D0020A0860100DD
:10370000104810B50E4901604FF4827141600021EC
:1037100002228160C0E903120122426152028261E9
:103720001022C0E90721416281620A21C162FEF7CD
:1037300075FF08B1FEF734F8BDE81040FDF756BE3E
:1037400000380040682D002010B586B000241948CC
:103750000094019402940394049415490594016023
:1037600041F61F41C0E9011442F20F71C0E9031490
:103770008021C0E90541FFF785FA08B1FEF710F88E
:103780004FF48050009069460A48FFF7F3FA08B1F9
:10379000FEF706F8049404A906480594FFF73EFADC
:1037A00008B1FDF7FDFF0348FFF7B8FA06B010BDFA
:1037B000002C0140EC2D00200C4810B50A49016096
:1037C0004FF4E1314160002181600C22C160C0E909
:1037D00004128161C161FFF7E4FB002803D0BDE85A
:1037E0001040FDF7DDBF10BD00440040342E002026
:1037F0002DE9FF4F524C9A46DFF848C1D4E90253F5
:10380000934683B06421ACF5FA624FF4FA7900BFB5
:1038100002EB810652F82100A6F58056E046C6F874
:10382000700E0CEB8106A6F580565CF82170C6F888
:10383000707E984200D20346A84200D90546491C32
:103840004945E5DBC4E902534FF4C8753E4E3F4F8E
:1038500006EB850050F8040CA06120213846FEF7E5
:10386000F3F80128F9D0364906222431072000F068
:1038700071F833482430017842788907890B41EA8E
:10388000022781780F4346F82570C17802798907AD
:10389000890B407941EA0221014348F82510A669C5
:1038A000D4E90201B742A0EB010014D901F056FDA2
:1038B0000090B81B01F052FD009901F059FC244919
:1038C00001F060FDE06101F015FD216A081A206237
:1038D00017D5002014E001F041FD0090F01B01F02D
:1038E0003DFD009901F044FC194901F04BFDE061F8
:1038F00001F000FD216A08442062FF2801DDFF205D
:103900002062039861696D1C01600498A1784D459F
:1039100001702169CBF8001061788AF8001095DBFE
:10392000074A921C02F11201501E8DE807000B1F7E
:10393000054A0448616800F0B7FE07B0BDE8F08FA3
:1039400000000020F0230020201C0020000C01407B
:1039500000007F43F8B514460D460646012269462D
:10396000002000F047F801226946104600F042F8B6
:1039700022462946304600F03DF8F8BD10B500F06B
:1039800047F80122C021022000F09CF8012200210A
:10399000032000F097F801220021042000F092F8A3
:1039A00001220021052000F08DF8012200210620CF
:1039B00000F088F801220F21082000F083F801228E
:1039C0000321092000F07EF8012227210A2000F0BF
:1039D00079F8012224210C2000F074F8012224211E
:1039E0000D2000F06FF801227F21BDE8104010206B
:1039F00000F068B80EB564238DE80E00024601237E
:103A0000AF210248FEF7F4F80EBD0000C02C0020E4
:103A100010B501224021092000F054F80122402174
:103A2000BDE81040092000F04DB80000FEB50025AB
:103A3000204E214C2CE0214F20213846FEF704F87F
:103A40000128F9D01C49062224310720FFF782FF04
:103A50001949243108784A788007800B40EA02200F
:103A60008A78104346F82500CA780B799207920BA2
:103A7000497942EA03220A43114941F82520E168C5
:103A8000884200D2E060A168884200D9A0606D1C25
:103A900060688542CFDB084A921C02F11201501E79
:103AA0008DE807000B1F034A0548616800F0FCFD24
:103AB000FEBD0000201C002000000020000C014082
:103AC000F023002007B584B005ABCDE900326421B6
:103AD000029102460123AE210248FEF7B7F907B072
:103AE00000BD0000C02C0020FEE7FEE730B400213E
:103AF000084B0A465FF0000003EBC004401CC0B254
:103B000062548028F8D3491CC9B20829F2D330BCCA
:103B100000F0CAB84000002030B1012807D10021D0
:103B20005FF0A70000F0AEB90021A620FAE77047C9
:103B300010B558B1012810D10021C02000F0A2F921
:103B40000021A020BDE8104000F09CB90021C82051
:103B500000F098F90021A120F4E710BD30B5CC08A1
:103B600001F0070301259D40EBB2064D05EBC005B2
:103B7000C808285C0AB1184302E063EA0000C043A9
:103B8000285530BD4000002070B5424D4FF4004430
:103B9000002221462846FDF75CFFC820FDF732FED3
:103BA000012221462846FDF754FF0021AE2000F0F7
:103BB00069F90021084600F065F90021102000F0A5
:103BC00061F90021402000F05DF90021812000F022
:103BD00059F90021CF2000F055F90021A12000F073
:103BE00051F90021C82000F04DF90021A62000F075
:103BF00049F90021A82000F045F900213F2000F0FC
:103C000041F90021D32000F03DF90021084600F0E1
:103C100039F90021D52000F035F90021802000F08D
:103C200031F90021D92000F02DF90021F12000F018
:103C300029F90021DA2000F025F90021122000F0F6
:103C400021F90021DB2000F01DF90021402000F0C7
:103C500019F90021202000F015F90021022000F0C0
:103C600011F900218D2000F00DF90021142000F041
:103C700009F90021A42000F005F90021A62000F098
:103C800001F9FFF733FFBDE870400021AF2000F0DD
:103C9000F9B80000001001400246012000E0504346
:103CA000491EC9B2FBD2704770B5114E002400BF47
:103CB00004F1B000C0B2002100F0E4F80021084691
:103CC00000F0E0F80021102000F0DCF85FF00005C3
:103CD00006EBC5000121005D00F0D4F86D1CEDB2CB
:103CE000802DF5D3641CE4B2082CE1D370BD000034
:103CF000400000202DE9FC4F1C460E4682468B46B4
:103D00000190082B0DD0600700D0012000EBD400FB
:103D100061084843C0B28146203AD0B200900020EA
:103D20004BE00620F7E7082C13D00C2C18D0102CF1
:103D30001BD0182C44D10098234900EBC00000BFD1
:103D400001EB8001002711F80850E80712D00B9A08
:103D500013E000981D4900EB400001EB4001F1E742
:103D600000981B4900EB4000EAE71A49009801EB74
:103D70000011E7E70B9828B3002231465046FFF7C1
:103D8000EDFE761C7F1C6D08FFB2F6B2082FDCD367
:103D90000AF1010000F0FF0A082C0AD00199AAEBF1
:103DA0000100B0EB540F04D10BF108008A4600F07B
:103DB000FF0B08F101005E46C0B280464845B2D311
:103DC000BDE8FC8F0122D8E79C620008105600086D
:103DD00038580008AC5C00082DE9F84F0025DDE9F3
:103DE0000A691F4692468B468046082E00D102255E
:103DF00000241CE0381B401EC1B20A20FFF74CFF14
:103E0000BAFBF0F00A21B0FBF1F201FB1200CDF891
:103E1000009080B13030C2B205EB560101FB048046
:103E2000C0B233465946FFF765FF641CE4B2BC429A
:103E3000E0D3BDE8F88F05EB560101FB0480C0B26A
:103E400033463022EEE72DE9F8411E4615468846F6
:103E50000446079F0BE03346414620460097FFF794
:103E600049FF082E0AD004EB5600C4B26D1C2A7814
:103E7000A2F120005E28EED9BDE8F881A41DE4B2CD
:103E8000F4E700002DE9F0471D4C054609B1012279
:103E900000E0002201212046FDF7DBFD0022022187
:103EA000A0462046FDF7D5FD164F00244FF480496B
:103EB0004FF40056002231463846FDF7CAFD280669
:103EC00001D5012200E0002249463846FDF7C1FD38
:103ED000012231463846FDF7BCFD6806641C050E1C
:103EE000E4B2082CE6D30122022144464046FDF705
:103EF000B0FD2046BDE8F04701221146FDF7A9BDFF
:103F000000080140001001407047F8B504464068C1
:103F10004FF48273984217D1A0684FF48065B0F5D2
:103F2000004F01D0A8420FD12068066826F0400655
:103F300006606068984207D1A068A84204D1009248
:103F40000B460022012103E000920B460022802153
:103F5000204600F023F8002804D0606D40F02000D7
:103F600060650320F8BDF8B515460E460B46009275
:103F700004460122022100F011F840B93346002224
:103F800080212046009500F009F8002804D0606DDB
:103F900040F0200060650320F8BD00002DE9F843E3
:103FA0001E46914688460446089DFDF757FD401B76
:103FB000351AFDF753FD074625480068C0F3CB309E
:103FC000684338E0701C37D0FDF748FDC01BA8429D
:103FD00003D215B1009860B32CE02068416821F04D
:103FE000E00141606068B0F5827F0BD1A068B0F558
:103FF000004F02D0B0F5806F04D12068016821F035
:1040000040010160A06AB0F5005F09D12068016835
:1040100021F4005101602068016841F40051016001
:10402000012084F85100002084F850000320BDE8EE
:10403000F8830025401E00902068816838EA01005E
:1040400004D000214945BDD10020F0E70121F9E766
:104050003C0000207047000000B585B000200190B2
:1040600003900948816941F00801816180696946CE
:1040700000F00800049010200090012002900348F6
:10408000FDF7F2FB05B000BD001002400008014042
:104090000B4800B5816985B041F0080181618069F4
:1040A000694600F008000490102000900120019063
:1040B0000290022003900348FDF7D6FB05B000BD37
:1040C0000010024000080140094A0021C0E9001226
:1040D000084A826001734FF07E52026180F8281016
:1040E00000EB8103491C5A610529F9DB7047000088
:1040F0009A99993F6666663FFDF78CBF30B58FB0E1
:1041000028216846FCF784F914210AA8FCF780F9F5
:1041100001210804CDE90010002402940225049135
:10412000CDE907504FF4E01009906846FEF7E6F835
:1041300008B172B6FEE70F20CDE90A054FF48060A2
:10414000CDE90C4002210AA80E94FDF7FBFF0028E0
:1041500001D072B6FEE70FB030BD70470148FEF7E0
:1041600078BE0000EC2D0020F0B50268194B1A4C07
:104170001A4D4FF08047984205D0B84203D0A04274
:1041800001D0A84203D122F070064A683243984217
:1041900005D0B84203D0A04201D0A84203D122F4F6
:1041A0004074CA6822434C6922F0800222430260B4
:1041B0008A68C2620A688262984201D10969016311
:1041C000012141610169C90703D0016921F00101A1
:1041D0000161F0BD002C01400004004000080040D7
:1041E00010B5846842EA032224F47F440A43224340
:1041F000826010BD826822F070020A4342F007011B
:104200008160704710B5036A046A24F001040462F7
:10421000846924F0F00444EA021423F00A020A43F9
:104220008461026210BD10B5036A046A24F01004B0
:104230000462846923F0A00324F4704444EA023247
:1042400043EA01118261016210BD01680C3151E83D
:10425000002F22F4907241E80023002BF5D1016871
:10426000143151E8002F22F0010241E80023002B15
:10427000F5D1016B012909D101680C3151E8002FFA
:1042800022F0100241E80023002BF5D1202180F814
:10429000421000210163704770B50446006801694F
:1042A000E26821F44051114301612169A06808438B
:1042B000616908432168CA6841F20C639A4302436A
:1042C000CA6020684169A26921F4407111434161CB
:1042D0001E492068884202D1FDF7DAFF01E0FDF7B0
:1042E000C7FF00EBC00101EB001260686421800091
:1042F000B2FBF0F3B3FBF1F36FF018067343B2FBBC
:10430000F0F5B2FBF0F605EB8305322303EB051560
:10431000B5FBF1F5B6FBF1F605F0F00505EB06157A
:10432000B2FBF0F6B2FBF0F0B0FBF1F06FF0180268
:10433000504306EB800003EB0010B0FBF1F0216866
:1043400000F00F002844886070BD00000038014074
:104350002DE9F843984617460D460446089E24E08A
:10436000701C22D0FDF77AFBA0EB0800B0421AD8EF
:10437000CEB12068C168490717D5802D15D0402DD2
:1043800013D00168C94309070FD4016800254068AC
:1043900000902046FFF759FF0820606484F84050E1
:1043A0000120BDE8F8830320FBE72068006835EAB8
:1043B000000004D00020B842D2D00020F1E7012054
:1043C000F9E7FEE7490050EAC12018BF04204A0D72
:1043D00018BF40F0010040F2FF72B2EB515F08BF1E
:1043E00040F00200012808BF052070470907090EA8
:1043F000002804DB00F1E02080F80014704700F092
:104400000F0000F1E02080F8141D704730380A28B2
:1044100001D2012070470020704700002DE9F041D3
:104420004FF0E0240546A769FDF718FB064605EBAB
:10443000C500C500BD420BD9FDF710FBB042FBD053
:104440000849781B0844A1698142FCD8BDE8F08185
:104450007D1BA069A842F9D9FDF700FBB042F8D056
:10446000F4E700004019010098B0FDF7DBFDFFF70D
:1044700045FEFFF771F8FFF723F9FFF701F9FFF7A2
:104480003FF9FFF799F9FFF75FF9FFF77DFB002090
:10449000FFF742FB0020FFF74BFBFFF727FBFFF77F
:1044A0006DFAFFF7C3FAFCF7B1FF5D48FFF70CFEAA
:1044B000FDF7ECF8DFF86CA1DFF86CB14FF0010804
:1044C0009AF8001009B300218AF8001006A8FDF739
:1044D00069F89DF81C009DF818309DF819209DF88A
:1044E0001A108DE80F009DF81D309DF81E204FA179
:1044F00008A8FBF779FE0021082308AA0846CDF892
:104500000080FFF7A0FCFFF7CFFB0FA8FCF793FF9D
:10451000BDF93C000121FCF7D7FF8146BDF93E0003
:104520000121FCF7D1FF0446BDF940000121FCF751
:10453000CBFF00F0F1FD06460F46204600F0ECFDF3
:1045400004460D46484600F0E7FD8DE8F0000B46B6
:1045500002463BA108A8FBF747FE4446082308AAE9
:1045600028210020CDF80080FFF76DFCFFF79CFBB1
:1045700012AB05AA11A904A8FFF73AF99DF8440067
:10458000012831D19DF8480001282DD1082332A2FD
:104590000A2100200094FFF756FC0825CDE90054BD
:1045A00003230A211420049AFFF716FC08232BA2E8
:1045B0000A2132200094FFF746FCCDE90054032382
:1045C0000A213C20059AFFF707FCFFF76DFBDDE9A8
:1045D000042323A113A8FBF707FE4FF6FF730D2258
:1045E00013A92348FEF748FDFDF7DCF8024608232F
:1045F0001E210120009400F0D9FAFFF755FB9BF82B
:1046000000005C4603287FF45BAF4FF49670FDF723
:10461000F9F800202070FFF769FA00F0E9FA4FE797
:10462000C02D00202E0000202D00002025642D2507
:10463000642D25642025643A25643A256400000031
:10464000783A252E316620793A252E3166207A3A3D
:10465000252E31660000000048523A00424F3A00D1
:1046600048523A2530336420424F3A2530336400B3
:10467000342E00202DE9F8418046DDE90706009040
:1046800017460C46099D404600F0ECF933463A4681
:104690002146404600F01CFA2068A84200DB28466C
:1046A0002060BDE8F88100002DE9FF4FBFB00E4645
:1046B00000211C4608464C9D04E03F9A52F82020F9
:1046C000401C1144B042F8DBB1FBF6F20020E04997
:1046D00006E03F9B53F820309B1A41F82030401CE5
:1046E000B042F6DB00204FF4F87C00BF01EB800203
:1046F00051F820305768E3463B44D2E902723A440D
:104700001A44D31702EB9372921041F82020401CF8
:104710005845EBDBCF4A00204FF4F77301EB8007DD
:1047200051F820C07F688946A7EB0C0742F820703B
:10473000401C9842F2DD002002EB800752F8201066
:104740007F689A46394401EBD171491042F8201034
:10475000401C5045F0DBC04F002096460023014628
:10476000421D08E0A1EB00085EF821C037F8188070
:10477000491C0CFB18339142F4DB40F27A4193FB65
:10478000F1F14EF82010401C7346B0F5F47FE5DDE2
:10479000002210464FEA0A0753F82010002900DCD7
:1047A0004942401C0A445045F6DD40F2EF1392FBAB
:1047B000F3F0052208218DE80700A64A3DA912A8BA
:1047C000FFF758FF00223D9B12A89646022B1ADBEA
:1047D000012109E000EB810C50F821705CF804CC59
:1047E000491CA7EB0C073A449942F3DB5B1E92FB92
:1047F000F3F141F2707292FBF1F24D990A604E9A18
:104800000121117005E04D9A944911604E9A82F889
:1048100000E000213D9F06E050F8213024AA9B1CB7
:1048200042F82130491CB942F6DB0020C8460BE0B3
:104830003F9951F8201048F82010419951F8202054
:10484000874941F82020401CB042F1DB002213468A
:1048500028E000BF24A84FF0010950F823004FF0D2
:104860008076411D51451CDCA0F1050CBCF1000F08
:1048700017DD401F0FE000BF58F820C0B44509DA2B
:10488000B9F1000F01D04FF0000966460DF10C0C94
:104890004CF82300401C8842EEDBB9F1000F00D138
:1048A000521C5B1CBB42D5DB022A06DA6B48206037
:1048B00085F800E043B0BDE8F08FDFF8A4C1002028
:1048C00008EB800158F820304E68E1463344D1E9C6
:1048D000026131441944CB1701EB9371891048F8F8
:1048E00020100CEB80035CF820605F683E44D3E945
:1048F00002733B443344DE1703EB96739B104CF872
:104900002030401C5845DBDB00200DF1D40B3E90DD
:1049100000234BF82030401C0528F9DB00204FF421
:10492000FA7309E003A951F82010994203DD4B48BE
:10493000206000208AE0401C9042F3DB0023A2F1BB
:10494000010A61E003A800EB830650F823E07668D3
:104950004FF07F42A6EB0E0011463B900A2852DD35
:104960007046CC460DE000BF58F820708F4201DD44
:1049700039463C905CF82070974201DD3A4633900E
:10498000401C8642F0DC59F826C059F82E000290EF
:10499000ACEB0000DDF8CCC0ACEB0E0778433B9FDE
:1049A00090FBF7F7029807EB000C339F59F827703C
:1049B000A7EB0C07219758F8260058F82E60DDF871
:1049C000F0C0801BACEB0E0778433B9F90FBF7F0E9
:1049D0003044339E219F58F826604F43301A50438D
:1049E000F911C01100280EDD3E9A052A0BDA51B1EB
:1049F00001EB8101890091FBF0F23E984BF82020F9
:104A00003E98401C3E905B1C53459BDB58463E99AC
:104A100000F094F83E9800EBD070401001280ADDB9
:104A20000BEB80025BF8200052F8042C104400EBE2
:104A3000D070401001E05BF82000C11EB529BFF422
:104A400076AF05493E31085C20600120287031E7CF
:104A5000800C0020C00400202074000819FCFFFF17
:104A6000501400202DE9F043814600240120DDF898
:104A70001C805E1E0C6026E052F82070474521DD48
:104A800002EB800454F8044CA7421BDD012500E032
:104A90006D1C44199C4203DA52F824C06745F7D0D4
:104AA000054452F82550AF420ADD0D680F2D07DA94
:104AB0004FEA850C6D1C0D6049F80C00601C02E08B
:104AC000204600E0401CB042D6DBBDE8F083000089
:104AD0002DE9F0431E4613460C460A68054601467A
:104AE000184600F045F84FF0FF3840461CE00A46F3
:104AF000411CC6F10009216013E000BF55F8217088
:104B0000431C19D055F82030FB1AB34201DC4B4549
:104B100006DA23684FEA830C5B1C236045F80C70AF
:104B2000491C9142EADB401C21688142DFDC2846B7
:104B3000BDE8F04300F002B84346E5E730B5012395
:104B400012E000BF50F823401A4602E040F822501D
:104B5000521E002A05DD00EB820555F8045CA542D3
:104B6000F4DC40F822405B1C8B42EBDB30BD0000E4
:104B7000F0B5012416E000BF51F82450234602E0AE
:104B800041F823605B1E002B09DD01EB830650F822
:104B9000257056F8046C50F826C06745F0DC41F8E3
:104BA0002350641C9442E7DBF0BD00002DE9FC417A
:104BB00007460CA01D46006801900E46089C104652
:104BC00000F0AAFA02460B4607A101A8FBF70CFB6E
:104BD0002B4601AA314638460094FFF734F9BDE868
:104BE000FC81000020000000252E303366204300A9
:104BF0002DE9F04F8BB0002401A8FCF7D3FC4FF057
:104C000001080823CEA200211420CDF80080FFF770
:104C10001AF9CD4ECD4D4FF0C8094FF4967B0027C1
:104C20004FF01E0A9DF80A20C9A103A8FBF7DCFA81
:104C3000F4B905E09DF80A20C5A103A8FBF7D4FA52
:104C400000200090082303AA0A210020FFF7FBF8A8
:104C50009DF80920C0A103A8FBF7C6FA012C09D0D2
:104C6000012008E09DF80A20B9A103A8FBF7BCFACF
:104C70000120E6E700200090082303AA0A2119205A
:104C8000FFF7E1F89DF80820B3A103A8FBF7ACFA01
:104C9000022C01D0012000E000200090082303AA8C
:104CA0000A212B20FFF7CFF89DF80620ACA103A81E
:104CB000FBF79AFA032C01D0012000E000200090BD
:104CC000082303AA0A214320FFF7BDF89DF8052019
:104CD000A5A103A8FBF788FA042C01D0012000E06D
:104CE00000200090082303AA0A215B20FFF7ABF8FD
:104CF0009DF804209EA103A8FBF776FA052C01D0AD
:104D0000012000E000200090082303AA0A216D2062
:104D1000FFF799F82A7898A103A8FBF765FA062C03
:104D200001D0012000E000200090082303AA1421F4
:104D30000020FFF788F86A7892A103A8FBF754FADD
:104D4000072C01D0012000E000200090082303AAD6
:104D500014213220FFF777F8AA788CA103A8FBF77B
:104D600043FA082C0AD0082303AA1E210020CDF8FC
:104D70000080FFF768F8092C07D108E0082303AA90
:104D80001E2100200097FFF75EF8012000E00020C0
:104D90000090082380A228210020FFF754F8FEF796
:104DA00083FF3078032802D001280AD05BE0584600
:104DB000FCF728FD641C3770092C7FF733AF002403
:104DC00030E75846FCF71EFD3770092C4BD2DFE860
:104DD00004F0050B172329292F3841009DF80A00FC
:104DE000401E8DF80A001DE79DF80900401E10F0D6
:104DF000FF008DF80900E3D10C208DF8090011E7C0
:104E00009DF80800401E10F0FF008DF80800D7D173
:104E10001F208DF8080005E79DF80600401E8DF85C
:104E20000600FFE69DF80500401E8DF80500F9E636
:104E30002878401EC0B228701E28C1D285F8009084
:104E4000F0E66878401EC0B268701E28B8D285F8B7
:104E50000190E7E6A878401EC0B2A8700A28AFD239
:104E60003220A870DEE630780228A9D15846FCF737
:104E7000C9FC37700A2CA3D2DFE804F005111D2805
:104E800033333E4750599DF80A00401CC0B28DF89C
:104E90000A0063287FF6CEAE8DF80A70CAE69DF848
:104EA0000900401CC0B28DF809000C287FF6DAAE6C
:104EB0008DF80980D6E69DF80800401CC0B28DF838
:104EC00008001F28F6D98DF80880CBE69DF806006B
:104ED000401CC0B28DF806001728EBD98DF806707B
:104EE000C0E69DF80500401CC0B28DF805003B28C7
:104EF000E0D98DF80570B5E62878401CC0B228705E
:104F0000C828D7D985F800A0ACE66878401CC0B2A4
:104F10006870C828CED985F801A0A3E6A878401CFF
:104F2000C0B2A8703228C5D90A20A8709AE6FEF748
:104F3000DDFD01A8FCF774FB0BB0BDE8F08F0000AD
:104F400053657474696E67002D0000202A000020EC
:104F500032302530326400002D25303264000000EC
:104F600020253032643A0000253032643A000000D7
:104F7000253032640000000048523A253033642066
:104F800000000000424F3A253033640074656D70B4
:104F90003A253032640000004241434B00000000DB
:104FA00010B500290AD00878002807D005487844B1
:104FB000FBF70CFE002801D0002010BD0248784409
:104FC00010BD00005A2600005226000021F00042C9
:104FD000A2F16052B2F5801F01F0004328BFD2F168
:104FE0007F6C0BD95FEA001C43EAC20242EB5070AF
:104FF00018BF704728BF20F001007047B2F5801F2E
:10500000BCBF184670474FEA410C1CF5001F02D286
:10501000084600F07EBA70B500F029F8000000895B
:10502000FFF7F6BF4FF00040A0F58000704700008A
:1050300002494FF0000000F073BA00BF0000F87F93
:1050400010F0004248BF4042B0FA80F310FA03F17A
:105050000AD0C3F11D0303F580634FEA415002EB10
:10506000035202EBD12170474FF0000070470EF160
:10507000020E2EF0030E5EF8046B364205D4012AB0
:1050800043EB030515F5001F12D8012841EB010C75
:105090001CF5001F0CD80ED14FEAD17C15F5001F6E
:1050A0000CEB4C0C0CF1020C08BF4CEBD37C04E075
:1050B0004FF0080C01E04FEAD37C0CEB4C0526FACC
:1050C00005F606F00706B6F1040C06D20EEB860CC8
:1050D000BDE870404CF0010C6047DFE80CF0090BB4
:1050E00002024FF000414FF00000A1F5002170BD19
:1050F00019461046012851EB010418BFD4F50014DD
:1051000084BF002001F0004170BD0808A0F5001127
:105110004FEA31017047000043004FEAD30C4FEAD9
:105120003C0C43401FBF40070CF1605113F0FE4F91
:1051300070471CF0006F03D100200CF00041704755
:105140000CF0004343EA507010B540EACC0000F088
:105150009AF900BF000000924FEA0001FFF7D5BFA7
:105160004FF000414FF00000A1F500217047000012
:105170004FF47F0C1CEAD0121EBF1CEAD11392EA36
:105180000C0F93EA0C0F00F0858090EA010F48BFE6
:1051900042F4807240F4000C41F400002CF07F4196
:1051A00020F07F4000B58142A2EB03020FF2081C01
:1051B000ACEB504EC0F100009EF800E04FEA4E0EFE
:1051C00000FB0EFC38BF49004FEA2C1C02F5FA0226
:1051D0000CFB0EF34FEACE1E4FEA112C4FEAC12111
:1051E0000EEB635E42EB22420EFB0CFC4FEA1C53BB
:1051F00000FB03114FEA112C4FEA01310EFB0CFCAE
:105200004FEADC4C00FB0C11C14228BF09184CEBE3
:1052100003335DF804EB10EB410143EBC250B2F5F0
:105220007C0F38BF704729D512F0F00F1CBF00F17A
:10523000C04000F0004070470081828384858687EB
:1052400088898B8C8D8E8F919293959697999A9C45
:105250009D9FA0A2A3A5A7A8AAACAEB0B2B3B5B7B4
:10526000B9BCBEC0C2C5C7C9CCCED1D4D7D9DCDF8A
:10527000E2E6E9ECF0F3F7FAFE0000004FEA400C3A
:105280000CF1807CBCF17E4F28BF7047B0F1C0406C
:1052900000F03FB990EA010F0CEAD11348BF42F485
:1052A0008072624538BF634507D213F47F0F16D072
:1052B00080EA010000F00040704710B500F0E3F80C
:1052C000097EFC3E00F005B880EA010000F00040D5
:1052D000704780EA010000F0004000F01AB912F4B3
:1052E0007F0F04BF0248704780EA010000F011B947
:1052F0000000C07F41000B0ED3F19E0208D950F48C
:1053000000034FEA032323FA02F048BF40427047EC
:1053100010B500F0B8F800BF499224800020704713
:105320006FF0004282EA20007047000010F0004158
:1053300048BF4042B0FA80F310FA03F2C3F19D0374
:105340000BD051EAC35101EB1220530638BF70470E
:1053500000F1010008BF20F001007047B0FA80F3AF
:1053600010FA03F2C3F19D030AD0D90501EB122014
:10537000530638BF704700F1010008BF20F001005C
:10538000704700004FF47F0C1CEAD0121EBF1CEACD
:10539000D11392EA0C0F93EA0C0F00F0478090EAC9
:1053A000010F48BF42F480724FF0004C4CEA0020DD
:1053B0004CEA012102EB0302A0FB0113A2F500025B
:1053C000002918BF43F001035B0028BF4FEA3303F5
:1053D00042EB22425FEA132C4CEBC2502EBFBCEBD7
:1053E000436FB2F57C0F70474FEA036CBCF1004F7E
:1053F00008BF20F00100B2F57C0F38BF70470BD515
:1054000082F0FF0212F5803FC8BF704700F1C04034
:10541000D8BF00F00040704700F5000C5FEA4C0C6C
:1054200048BF7047B0F1C04000F073B890EA010F78
:105430000CEAD11348BF42F48072624538BF63451D
:1054400004D280EA010000F00040704710B500F07F
:105450001AF800BF8900013E00F007B800F009B853
:105460005FEA410C5FEA1C6C08D080EA010000F0A2
:1054700050B85FEA400C5FEA1C6CF6D14FF0004078
:10548000A0F5800070470EF1020E2EF0030E5EF8BC
:10549000044B244204D44FEA4102B2F17F4F11D8A9
:1054A0004FEA4003B3F17F4F0CD80ED14FEAD07CC6
:1054B000B2F17F4F0CEB4C0C0CF1020C08BF4CEB23
:1054C000D17C04E04FF0080C01E04FEAD17C0CEBFA
:1054D0004C0324FA03F404F00704B4F1040C06D2DC
:1054E0000EEB840CBDE810404CF0010C6047DFE887
:1054F0000CF0070802024FF00040A0F5800010BD3C
:105500000846420018BFD2F1807288BF00F0004008
:1055100010BDFF2141EAD050C0057047FBF7D4B859
:105520000CF00F03092B08BF082000F059800A2B4C
:105530000BD0082B18BF704708BF1CF0400F0AD0D3
:105540004FF000004FF0000170471CF0400F18BFF3
:105550004FF0004070471CF0100F08D020F070434F
:1055600000F07F4242EAD3014FEA4370704700F0F7
:10557000604021F07F4242EA000201F07F4040EAB1
:10558000727070474FF0FF0C4CF4E06C1CEA115342
:105590001CBF9CEA030C9445C2BFDA4201EB0251E6
:1055A0007047002B0DD0BCF1000F0FD0002A01F086
:1055B0000041A4BF41F0E04141F07F614FF00000A5
:1055C000704701F000414FF00000704750EA01338E
:1055D0004FF09B0C18BF4CF0806C7FF429AD7047E6
:1055E0001CF4801F11D01CF4E02F03D06FEACC31E3
:1055F000490070474FF04050EFF3008222F07042B4
:1056000042EA000282F3008870474FF000007047C2
:105610000000000000000000002F00000000070054
:10562000070000147F147F1400242A7F2A120062CE
:10563000640813230036495522500000050300007A
:1056400000001C224100000041221C000014083E02
:1056500008140008083E0808000000A060000008C8
:10566000080808080000606000000020100804021C
:10567000003E5149453E0000427F400000426151DA
:105680004946002141454B31001814127F10002774
:1056900045454539003C4A49493000017109050337
:1056A00000364949493600064949291E0000363668
:1056B00000000000563600000008142241000014CB
:1056C00014141414000041221408000201510906A8
:1056D00000324959513E007C1211127C007F494929
:1056E0004936003E41414122007F4141221C007F5A
:1056F00049494941007F09090901003E4149497A68
:10570000007F0808087F0000417F410000204041E1
:105710003F01007F08142241007F40404040007F4D
:10572000020C027F007F0408107F003E4141413E91
:10573000007F09090906003E4151215E007F0919D9
:1057400029460046494949310001017F0101003FD6
:105750004040403F001F2040201F003F4038403F56
:1057600000631408146300070870080700615149BA
:10577000454300007F41410000552A552A5500004D
:1057800041417F00000402010204004040404040CB
:10579000000001020400002054545478007F484463
:1057A000443800384444442000384444487F00389A
:1057B0005454541800087E0901020018A4A4A47CC3
:1057C000007F080404780000447D4000004080848D
:1057D0007D00007F102844000000417F4000007CD5
:1057E00004180478007C08040478003844444438E1
:1057F00000FC242424180018242418FC007C08042D
:10580000040800485454542000043F444020003C05
:105810004040207C001C2040201C003C4030403C8C
:10582000004428102844001CA0A0A07C004464541C
:105830004C44141414141414000000000000000060
:10584000000000000000FC0000000000020000005A
:10585000000C020C020000000000000090D0BCD040
:10586000BC900003000300001824FE448C000302D7
:10587000070201001824D8B04C8000030001020187
:10588000C038E438E000010202010202080600000C
:105890000000000000000000000000F8040200000A
:1058A00000010204000204F80000000402010000EC
:1058B0009060F86090000000010000002020FC20B3
:1058C00020000000010000000000000000000806A9
:1058D0000000000020202020200000000000000028
:1058E0000000000000000002000000000080601CBA
:1058F0000200040300000000F8040404F8000102A0
:10590000020201000008FC00000000020302000087
:10591000188444241800030202020200080424240C
:10592000D80001020202010040B088FC80000000A3
:10593000000302003C242424C400010202020100EE
:10594000F824242CC0000102020201000C04E41C13
:105950000400000003000000D8242424D800010221
:105960000202010038444444F8000003020201002E
:1059700000001000000000000200000000002000F5
:105980000000000006000000002050880402000013
:105990000000010290909090900000000000000034
:1059A0000002048850200002010000001804C424F2
:1059B0001800000002000000F804E494F80001025E
:1059C0000202020000E09CF08000020300000302DB
:1059D00004FC2424D800020302020100F804040499
:1059E0000C0001020202010004FC0404F80002039E
:1059F0000202010004FC24740C00020302020300F2
:105A000004FC24740C00020302000000F0080444AB
:105A1000CC4000010202010004FC2020FC0402032F
:105A2000000003020404FC0404000202030202005A
:105A3000000404FC040406040403000004FC24D055
:105A40000C0402030200030204FC04000000020331
:105A500002020203FC3CC03CFC0003000300030004
:105A600004FC30C4FC04020302000300F804040434
:105A7000F80001020202010004FC242418000203C1
:105A800002000000F8848404F80001020207050007
:105A900004FC246498000203020003021824244436
:105AA0008C000302020201000C04FC040C00000242
:105AB0000302000004FC0000FC04000102020100DB
:105AC000047C80E01C040000030000001CE03CE0BB
:105AD0001C00000300030000049C609C04000203FF
