:020000040800F2
:1000000068340020A90100083F360008DD2C0008F4
:100010003D36000807150008FB3D00080000000001
:10002000000000000000000000000000A93B0008E4
:10003000D1160008000000005D3A00081D3C0008D1
:10004000C3010008C3010008C3010008C301000880
:10005000C3010008C3010008C3010008C301000870
:10006000C3010008C3010008C3010008C301000860
:10007000C3010008C3010008C3010008C301000850
:10008000C3010008C3010008C3010008C301000840
:10009000C3010008C3010008C3010008DB16000803
:1000A000C3010008C3010008C3010008C301000820
:1000B000C3010008C3010008C3010008C301000810
:1000C000C3010008C3010008C3010008C301000800
:1000D000C3010008C3010008C3010008C3010008F0
:1000E000D3160008C3010008C301000800F002F89D
:1000F00000F04AF80AA090E8000C82448344AAF178
:100100000107DA4501D100F03FF8AFF2090EBAE875
:100110000F0013F0010F18BFFB1A43F0010318473B
:10012000386B0000586B0000103A24BF78C878C1C3
:10013000FAD8520724BF30C830C144BF04680C60ED
:10014000704700000023002400250026103A28BF35
:1001500078C1FBD8520728BF30C148BF0B60704739
:10016000662904F01385642900F07A800020704726
:100170001FB500F0FBFB04000020002104F048FA4A
:10018000E0601FBD10B510BD00F0ECFC1146FFF79C
:10019000EFFF03F085FE00F00AFD03B4FFF7F2FF66
:1001A00003BC00F04BFD00000948804709480047A8
:1001B000FEE7FEE7FEE7FEE7FEE7FEE7FEE7FEE717
:1001C000FEE7FEE704480549054A064B7047000074
:1001D0007F3C0008ED000008682E002068340020F5
:1001E00068300020683000200FB41CB5074B06AA09
:1001F0007B4469460090059800F09FFB002069460B
:1002000000F0AEFB1CBC5DF814FB00006D070000A5
:1002100070B5044685690068C10601D5302600E046
:100220002026C00707D070BDD4E901213046904791
:10023000206A401C20626D1EF6D570BD70B5044664
:1002400085690078C00707D170BDD4E9012120205D
:100250009047206A401C20626D1EF6D570BD0000DC
:100260002DE9F0410646002410687529314616A58F
:1002700010D0AFF30080002802DA404213A507E057
:1002800031688A0701D512A502E0490704D511A5F6
:10029000012401E0AFF3008000210A2206F12407C7
:1002A00009E0B0FBF2FCB0FBF2F302FB1C003030C3
:1002B00078541846491C0028F3D123462A46304674
:1002C000BDE8F04100F0CEB8000000002D000000B5
:1002D0002B000000200000002DE9F05F8946044655
:1002E0004FF0000ADFF824B1FB44C0F820A02046FC
:1002F000E168884700287DD0252806D0D4E901216F
:100300009047206A401C2062F1E700255F462046A6
:10031000E16888472028064607DB312E05D2B81948
:1003200010F8200C08B10543F1E7A80701D525F026
:100330000405C4F81CA00027C4F818A02A2E09D070
:10034000304603F07FFD38B304EB8708303EC8F831
:10035000186019E059F8041B204604EB87029161EC
:10036000E1688847012F064618D1E069002820DAA5
:1003700025F020051DE0D8F8180000EB800006EB02
:1003800040003038C8F818002046E1688847064623
:1003900003F058FD0028EED1012F0AD02E2E08D1EF
:1003A0002046E16888477F1C0646022F45F020055D
:1003B000C4DBA069002803DA404245F00105A061D2
:1003C000E80701D025F01005A6B1A6F141001928D3
:1003D00002D8203645F400654A463146204625605D
:1003E0004D46FFF7BDFE60B1012807D0ED1D25F099
:1003F000070000E007E000F1080978E705F10409CB
:1004000075E730467AE7206ABDE8F09FC4680000CF
:100410004FF0000200B5134694469646203922BF9D
:10042000A0E80C50A0E80C50B1F12001BFF4F7AFE8
:10043000090728BFA0E80C5048BF0CC05DF804EBCA
:10044000890028BF40F8042B08BF704748BF20F838
:10045000022B11F0804F18BF00F8012B7047704736
:10046000704770472DE9F0470D469946924604467D
:1004700000F124080168880604D5E06921F0100124
:10048000216000E00120A84201DD471B00E00027B9
:10049000A1697A1902EB0900081AA0612078C00648
:1004A00002D42046FFF7B4FE002608E0D4E901217B
:1004B0001AF806009047206A401C761C20624E45C0
:1004C000F4DB2078C0060AD52046FFF7A1FE06E03F
:1004D000D4E9012130209047206A401C2062381E58
:1004E000A7F10107F4DC07E0D4E9012118F80500C1
:1004F0009047206A401C2062281EA5F10105F3DC0C
:100500002046FFF79BFE2078000602D50220BDE8BA
:10051000F0870120FBE770472DE9FF4F0C461E4690
:100520004FF0FF378BB0D2E90001DDF860800A9010
:100530008A46C1F30A5505B93D46002108464FF0E9
:100540000000BAF1000F00F4400005DA00EB800073
:100550004FF4400101EA50004FEA9059B9F1010F00
:1005600000DDB9460A9850EA4A000ED044F6105011
:10057000A5F2FF3545432F14B8F1000F1ED0754288
:10058000291E1EDDC9F100021CE0B8F1010F4FF079
:10059000000001D0302103E0F24305E02154401C6B
:1005A000B042FBDB30460022002121540B99C1F8F8
:1005B0000880C1E900200FB0BDE8F08FBD1B6D1CA5
:1005C000DEE74A4600DA694206A800F059FA06ABAF
:1005D00093E8070003AB83E8070050460A9900F050
:1005E00034FB8DE80700A0F500501F3800900398F9
:1005F000002D09DD42F21F014A46084403A9039079
:10060000684600F093FD08E0A0F500504A461F3808
:1006100003A90390684600F09DFD8DE807000004E3
:10062000000C03D04FF0FF30410800E01046B8F155
:10063000000F03D00022009215461EE0751E05D45F
:1006400000F098F9303262556D1EF9D5B34601229B
:10065000084302D000227F1C04E02078302801D11A
:1006600000227F1E002A099786D01DE0112D07DA8F
:1006700000F080F9303262556D1C50EA0102F5D16C
:10068000084302D00098C8B10EE00021681E05E0C2
:10069000235C625C63542254401E491C8142F7DB98
:1006A000AB46A81B401E0990002004F80B000B98D5
:1006B000099AC0F80880C0E9002B7CE711264FF0AA
:1006C000000859E72DE9F04F88460446D21D22F074
:1006D000070191B0D1E90001CDE90A0103F08EFBD9
:1006E00002460B98C00F01D02D2007E0206881073B
:1006F00001D52B2002E0202101EAC000032A099045
:1007000001D0072A05DB03464146204600F078F970
:100710000BE12078800601D5E06900E00620B8F101
:10072000650F814606D0B8F1660F18D0B8F1670F93
:1007300070D131E00020B9F1110F009001DB1123DD
:1007400001E009F101030AAA01A90CA8FFF7E4FEE0
:10075000DDE90C70002609F10105834647E0012020
:100760004B4600904FF000470AAA01A90CA8FFF7DA
:10077000D3FEDDE90DB00C995D46002610B909F1F4
:1007800001000D18B9EB050003D4C0F1FF3609F1E3
:100790000105A5EB09002BE0B9F1010F01DA4FF0DB
:1007A00001090020B9F1110F0090484601DD112325
:1007B00000E003460AAA01A90CA8FFF7ADFEDDE997
:1007C0000C704D4600268346207800070AD4AB45BE
:1007D00000DA5D4601A8012D04DD411911F8011C64
:1007E000302907D04F4502DA17F1040F04DA01204F
:1007F00082460FE06D1EEEE7002F02DCED1B3E444B
:1008000003E0781CA84200DD7D1CB81B00F1010A42
:100810004FF000472078000703D4AA4501DB4FF0D2
:10082000FF3A0021B7F1004F0DF143088DF8431056
:1008300024D002202B23002F01DA7F422D230A210E
:10084000021EA0F1010000DC5FB197FBF1FC97FBF9
:10085000F1F201FB1C7C17460CF1300C08F801CDBD
:10086000EEE7A8F1010003702188090501D54521B3
:1008700000E06521A0F1010800F8011C09980FA90A
:10088000A1EB0807FF1D00B10120411901EBEA703F
:10089000A1693844081A401EA0612078C00602D41D
:1008A0002046FFF7B5FC099828B1D4E9012190470B
:1008B000206A401C20622078C00622D52046FFF71F
:1008C000A7FC1EE0002E04DBB34502DD01A8805D1D
:1008D00000E03020D4E901219047206A401C2062CA
:1008E000761CAAF101005FEA000A0AD100F03EF886
:1008F000C0680168405CD4E901219047206A401C2F
:100900002062281EA5F10105DCDC07E0D4E9012105
:1009100018F8010B9047206A401C2062381EA7F18E
:100920000107F3DC2046FFF789FC032011B043E602
:1009300001694A1C02610878704700B58FB0CDE9A3
:1009400001310021059105497944CDE90310114693
:100950006846FFF7C1FC0FB000BD0000E5FFFFFFD8
:100960000A6802F8010B0A607047000000487047EF
:10097000242E002030B5B0F10A024FEA900E71F13A
:1009800000034EEA817EB0EB0E0061EB91014FEA6D
:10099000101E4EEA017E10EB0E0041EB11114FEAE2
:1009A000102E4EEA016E10EB0E0041EB11214FEAC2
:1009B000104E4EEA014E10EB0E0041EB1141401873
:1009C00041F100014FEAD00040EA41704FEAD10105
:1009D00010EB80054FEA810444EA907444EB010473
:1009E0006D1944EB0404521BA3414FF0000348BFB0
:1009F0000A3200D530BD401C41F1000130BD00007D
:100A00002DE9F0411F46044603260168072A01F438
:100A1000006004DB08B116A505E016A503E008B1E7
:100A200015A500E015A521F010002060A069C01EEA
:100A3000A0610FB1401EA0612046FFF7E9FB4FB156
:100A4000D4E9012138469047206A401C2062C01C2E
:100A5000206206E0206AFAE7D4E9012115F8010BCB
:100A60009047761EF8D22046FFF7E8FBBDE8F081FC
:100A70004E414E006E616E00494E4600696E660042
:100A80002DE9F047814616468AB0334878440DC8B0
:100A90008DE80D0030487844801C03AC0DC884E814
:100AA0000D0041F69B300844372190FBF1F290FB9A
:100AB000F1F5A5F1800501FB12041B3C02D564424F
:100AC000012000E00020DFF890A080460027FA44D3
:100AD000AAF1BE0A0DE0E00709D03246684607EBEE
:100AE00047010AEB810100F035FB8DE80700641037
:100AF0007F1C002CEFD1184F7F44AC3F18E0E80773
:100B000014D007EB04100DF1180A90E80E008AE8E3
:100B10000E00C068F04201D198190890324606A92B
:100B200003A800F017FB03AB83E807006D10641CFB
:100B3000002DE4D132466946B8F1000F03A802D077
:100B400000F0F4FA01E000F005FBC9E90001C9F882
:100B500008200AB0BDE8F087B06100000048704787
:100B6000042E00207546FFF7F9FFAE4605006946E2
:100B7000534620F00700854618B020B5FFF722FB4A
:100B8000BDE820404FF000064FF000074FF000088E
:100B90004FF0000B21F00701AC46ACE8C009ACE80F
:100BA000C009ACE8C009ACE8C0098D4670470446EE
:100BB000AFF300802046FFF7F0FA00004FF0013C51
:100BC00050F8042B51F8043B9A4221D1A2EB0C03BC
:100BD000934313EACC1317D150F8042B51F8043B7C
:100BE0009A4215D1A2EB0C03934313EACC130BD119
:100BF00050F8042B51F8043B9A4209D1A2EB0C03A4
:100C0000934313EACC13DBD04FF00000704700BFD2
:100C1000D01A01BAB1FA81F101F0180122FA01F0FB
:100C2000CB40C1F12001DBB2C0B2C01A2CFA01F3F3
:100C3000D11A914311EAC311E6D170470149182036
:100C4000ABBEFEE72600020070475FEA400C08BF1B
:100C500091F0000F4FEA8C234FEAC12243EA515131
:100C60004FEA1C5018BF00F5F0404FEA300018BFA3
:100C700041F000415FEA6C5C00F02980BCF1FF3F6D
:100C800008BF40F080407047130C06BF12044FF0BD
:100C9000100C4FF0000C130E04BF12020CF1080CE4
:100CA000130F04BF12010CF1040C930F04BF920048
:100CB0000CF1020CD30F04BF52000CF1010C1146D1
:100CC0004FF00002A0F11F00A0EB0C00704711F0E4
:100CD000004F08BF704731F000413FF4D5AF0B0C17
:100CE00006BF09044FF0100C4FF0000C0B0E04BFB0
:100CF00009020CF1080C0B0F04BF09010CF1040CE4
:100D00008B0F04BF89000CF1020CCB0F04BF49000C
:100D10000CF1010CCCF12003A0EB0C0022FA03F340
:100D200002FA0CF241EA030100F10100704720F0E1
:100D30007F4C80EA030023F07F47ACEB070303F509
:100D40007C5300F0004003F1FF032DE980494FEA96
:100D5000154B09B44FEA144325EA0B4E24EA034825
:100D60000FF2042606EB132749083E785FEA3202A9
:100D700003FB0667C7F5000707FB06F64FEA543783
:100D80004FEAD64606F1020607FB066CCCF1005C82
:100D90004FEA1C472CEA074C07FB06F40CFB06F550
:100DA00004EB15464FEA961634BF00204FF0004082
:100DB0004FEAD13706FB07FC4FEA1C4C0CFB0BF744
:100DC000D21B03FB0CF761EB07010CFB0EF7B0EB3A
:100DD000074072EB17420CFB08F734BFA2EB074247
:100DE000B2EB074261EB17414FEA0C444FEA91071F
:100DF00006FB07FC4FEA1C4C0CFB0BF7B0EBC740A3
:100E000072EB573203FB0CF734BFA2EBC742B2EBD5
:100E1000C74261EB57310CFB0EF7B0EBC70072EB2A
:100E200057720CFB08F734BFA2EBC702B2EBC70244
:100E300061EB5771039F4FEA816141EA921104EB24
:100E4000CC044FEAD1374FEA826206FB07FC42EA44
:100E500090124FEA80604FEA1C4C0CFB0BF7D21B40
:100E600003FB0CF761EB07010CFB0EF7B0EB07403F
:100E700072EB17420CFB08F734BFA2EB0742B2EB50
:100E8000074261EB17414FEA8C554FEA910704EB9B
:100E90009C2406FB07FC4FEA1C4C0CFB0BF7B0EB49
:100EA000C74072EB573203FB0CF734BFA2EBC742CB
:100EB000B2EBC74261EB57310CFB0EF7B0EBC7004A
:100EC00072EB57720CFB08F734BFA2EBC702B2EB10
:100ED000C70261EB577115EB4C254FEA816141EA7E
:100EE00092114FEA82624FEAD13742EA901206FB32
:100EF00007FC44F100044FEA80604FEA1C4C0CFBF5
:100F00000BF7D21B03FB0CF761EB07010CFB0EF791
:100F1000B0EB074072EB17420CFB08F734BFA2EBB3
:100F20000742B2EB074261EB174115EB1C154FEA84
:100F3000813141EA92414FEA823242EA90424FEADD
:100F400080304FEA0C7644F1000448EA03434EEA4D
:100F50000B484FF0000EB2EB080C71EB030724BFF7
:100F6000624639464EEB0E0E4FF0000B0018524110
:100F700049414BEB0B0BB2EB080C71EB03077BF118
:100F8000000B24BF624639464EEB0E0E4FF0000BAD
:100F90000018524149414BEB0B0BB2EB080C71EBC3
:100FA00003077BF1000B24BF624639464EEB0E0E61
:100FB00051EA020718BF46F0010616EB0E7655F10E
:100FC000000254F1000103D5BDE88901BDE80088A5
:100FD000BDE88901BDE80048B619524141EB010165
:100FE000A3F10103704780807F7E7D7C7B7A7978D6
:100FF000777676757473727171706F6E6E6D6C6CDE
:101000006B6A6A696868676666656464636362617F
:101010006160605F5F5E5E5D5D5C5C5B5B5A5A5900
:10102000595858575756565555555454535352526C
:101030005251515050504F4F4F4E4E4D4D4D4C4CC4
:101040004C4B4B4B4A4A4A4949494848484747470D
:10105000474646464545454444444443434343424A
:10106000424242414141002B26D4770021D01CB599
:101070004FEA370703B44FF010004FF010014FF064
:1010800000000FBCBDE810400BF1010BBBF1010FDC
:1010900008BF5FEA170722BF12F1010211F1010137
:1010A0004FF0004143F1000300F0004043EA00002C
:1010B0007047F9D35708DAE746EA064613F1400FBE
:1010C0004FEA16461FDD13F1200FDFBF16430A4615
:1010D000002120335B42C8D0C3F1200746EA064610
:1010E00002FA07F74FEA164646EA0706C3F1200759
:1010F00022FA03F201FA07F721FA03F14FF0000395
:1011000042EA0702B1E746EA020646EA06464FEA25
:10111000164646EA0106BCBF46EA0646360C4FF0C4
:1011200000034FF000024FF000019EE72DE9C04898
:10113000934630B491E8380007C831EA400C48BF04
:1011400034EA430C03D5FFF7F2FDFFF78CFFF0BC48
:10115000BDE800882DE9C048934630B491E83800D6
:1011600007C810F0804F08BF13F0804F03D100F084
:1011700005F8FFF778FFF0BCBDE8008820F07F4756
:1011800080EA030023F07F4C07EB0C03A3F57C53AC
:1011900000F00040A3F1FE0392F0000F00F0B380D6
:1011A00095F0000F00F077802DE901494FEA1140DA
:1011B0004FEA144621EA004800FB06FC24EA0647F1
:1011C00008FB06F607FB08F800FB07F718EB0648D4
:1011D0004CEB164C4FEA124B18EB07484FEA1546FA
:1011E0004CEB174022EA0B4E0BFB06FC25EA0647A8
:1011F0000EFB06F607FB0EFE0BFB07F71EEB064E7B
:101200004CEB164C4FF000061EEB074E4CEB174B09
:1012100018EB0B0840F1000018EB0E0B58EB000820
:1012200040F100008F1A4FF000013CBFC943661B1C
:1012300014BFB5EB040C00213CBFC943F61B4FEAB9
:1012400017444EEA8E0E27EA04454FEA1C4704FB7A
:1012500007622CEA074C05FB07F70CFB05F604FBBD
:101260000CFC16EB074642EB174216EB0C4642EB22
:101270001C421BEB060658EB0202414146EA9E0661
:1012800001D5BDE80189B619524141EB0101A3F135
:101290000103BDE801894FEA14454FEA114724EAEA
:1012A000054621EA074C05FB07F406FB07F70CFB94
:1012B00006F105FB0CFC11EB074144EB17444FEA28
:1012C000124711EB0C4144EB1C4422EA074C05FB8E
:1012D00007F206FB07F70CFB06F605FB0CFC16EB0A
:1012E000074642EB174216EB0C4642EB1C456A18C8
:1012F00054F1000148BF7047B619524141EB01015A
:10130000A3F10103704795F0000F37D04FEA114267
:101310004FEA144721EA024624EA074C02FB07F190
:1013200006FB07F70CFB06F402FB0CFC14EB07446E
:1013300041EB17414FEA154714EB0C4441EB1C41BC
:1013400025EA074C02FB07F506FB07F70CFB06F640
:1013500002FB0CFC16EB074645EB174516EB0C465B
:1013600045EB1C42121951F1000148BF7047B619F4
:10137000524141EB0101A3F1010370474FEA1445CB
:101380004FEA114724EA054621EA074C05FB07F11D
:1013900006FB07F70CFB06F24FF0000605FB0CFC02
:1013A00012EB074241EB174112EB0C4251EB1C418F
:1013B00048BF7047921841EB0101A3F10103704748
:1013C00001221103014800F0ECBA0000000C0140BA
:1013D00000224FF48051014800F0E3BA000C0140B4
:1013E00010B5002000F03CF8E52800D0FEE70A2107
:1013F0002C2000F06DF80121312000F069F808215F
:10140000BDE810402D2000F063B81CB5044606224C
:101410006946322000F00AF8BDF800002080BDF8CF
:1014200002006080BDF80400A0801CBD38B540F00B
:10143000C00014460D468DF80000FFF7C9FF642375
:1014400001226946054801F0CFF964232246294666
:10145000024801F01FF9FFF7B3FF38BD642D0020EB
:101460001CB540F080008DF8040000208DF80000CD
:10147000FFF7AEFF6423012201A9074801F0B4F988
:10148000642301226946044801F004F9FFF798FF3C
:101490009DF800001CBD0000642D002010B541B176
:1014A0004FF0705401290CD0022905D0032908D12E
:1014B00005E04FF06E5404E04FF0725401E04FF03D
:1014C000745403F06BFA2146BDE8104003F092BA61
:1014D00008B58DF800008DF80110FFF779FF64233F
:1014E00002226946024801F07FF9FFF769FF08BD53
:1014F000642D002000F00F01000900EB800001EBDB
:101500004000C0B27047FEE770B5002402F04EFB09
:10151000124D04E0641CE4B2012002F09BFC102197
:10152000284600F039FA10B1642CF3D30FE0642C94
:101530000DD2002404E0641CE4B2012002F08AFC15
:101540001021284600F028FA18B1F02C04D301200D
:1015500070BDF02CEFD3FAE7002070BD0008014009
:1015600010B586B004466422072103A88DE8070061
:1015700001230022D021184800F0E2FA020028D10D
:101580009DF80C0000F07F00FFF7B4FF20709DF87D
:101590000D00FFF7AFFF60709DF80E0000F03F00F8
:1015A000FFF7A8FFA0709DF80F00FFF7A3FFE07002
:1015B0009DF81000FFF79EFF20719DF8110000F0CC
:1015C0001F00FFF797FF60719DF81200FFF792FF71
:1015D000A07106B0104610BD102D002010B500F00F
:1015E0002FF8BDE81040FFF78FBF00002DE9F04154
:1015F0000026124F354600BF02F0F4FA00221021F7
:10160000384600F0CEF90A2002F024FC02F0CEFAAF
:101610001021384600F0C0F901280DD000242D20FB
:1016200002F018FCAC4034436D1CEDB2E6B2082D5C
:10163000E2D33046BDE8F0810124F0E70008014024
:1016400010B502F0CFFA0A4C00221021204600F01B
:10165000A8F940F2EE2002F0FDFB01221021204605
:1016600000F09FF9BDE810400F2002F0F3BB00002E
:101670000008014070B5054602F0B4FA134E01248B
:1016800025424FF000024FF0100130460BD100F020
:1016900088F9462002F0DEFB01221021304600F0DE
:1016A00080F902200AE000F07CF9092002F0D2FB68
:1016B00001221021304600F074F9372002F0CAFBF5
:1016C000600010F0FF04DBD170BD00000008014095
:1016D00070474FF4806000F063B810B54FF480702D
:1016E00000F05EF8BDE810404FF4007000F058B80C
:1016F00072B6FEE710B5FFF7A3FFFFF705FFCC209A
:10170000FFF7B8FF4420FFF7B5FF4FF4AF7002F0CA
:10171000A1FBFFF795FFFFF7F7FECC20FFF7AAFF2D
:10172000BE20FFF7A7FFFFF761FF0446FFF75EFF4C
:10173000000201B251EA04006FF0030401D5C04376
:10174000401C02F0B5FF224603F054FABDE81040F9
:1017500002F074BF70B5044600F028F90546601C1D
:1017600002D004480078044400F020F9401BA04255
:10177000FAD370BD2C0000200849B0F5806F08D066
:10178000B0F5007F07D0B0F5807F01D1032008704D
:1017900070470120FBE70220F9E700002A00002043
:1017A000044910B50A68024202D00860FFF7E4FF5E
:1017B00010BD0000140401402DE9F84FDFF8B89186
:1017C0000024A9F1040B23460F2709F1040AABF109
:1017D000040EC9E00125A5402A40AA427DD1674EEA
:1017E000D1F804C0ACEB0608B44532D014DCBCF12F
:1017F000030F3AD009DCBCF1000F2AD0BCF1010F75
:101800001CD0BCF1020F31D11DE0BCF1110F17D07B
:10181000BCF1120F2AD119E0B8F5881F19D006DCE7
:10182000B8F5803F15D0B8F5801F1FD111E0B8F58D
:10183000001F0ED0B8F5041F18D10AE0CB6815E0E0
:10184000CB681B1D12E0CB6808330FE0CB680C336C
:101850000CE08B682BB1012B4FF0080303D04561DE
:1018600004E0042302E0056100E00023FF2A01D820
:10187000064601E000F104064FEA840501D9A5F10E
:101880002005D6F8008007FA05FC28EA0C0803FAC0
:1018900005F548EA0508C6F800804D68ED0062D5F8
:1018A000374DAE6946F00106AE61AD6924F003061E
:1018B00005F001050095334D06EB050CDCF80850EA
:1018C000A607360F07FA06F825EA0805DFF8B880FC
:1018D000404503D14FF0000817E044E0DFF8AC804A
:1018E000404502D14FF001080FE0DFF8A4804045E9
:1018F00002D14FF0020808E0DFF89880404502D19D
:101900004FF0030801E04FF0040808FA06F848EA2F
:101910000508CCF808804D68D9F80060ED024D4606
:1019200001D5164300E096432E604D68DAF800605A
:10193000AD02554601D5164300E096432E604D6832
:10194000DBF80060AD035D4601D5164300E0964329
:101950002E604D68DEF80060ED03754601D5164334
:1019600000E096432E60641C0D682A46E5407FF433
:1019700031AFBDE8F88F00000804014000001110ED
:10198000001002400000014000080140000C01402E
:1019900000100140001401408068084000D0012080
:1019A00070470AB1016170470904FBE7014880688C
:1019B000704700002C00002070B5040025D094F87A
:1019C0003D00002520B984F83C50204600F07EFA06
:1019D000242084F83D002068016821F001010160A5
:1019E0002068016841F4004101602068016821F429
:1019F0000041016000F0E4FB4D4A6168914201D86A
:101A00004C4900E04C49884201D2012070BD4B494D
:101A10002368B0FBF1F15E6826F03F060E435E607E
:101A20006368934206D94FF4967359434FF47A731F
:101A3000B1FBF3F12368491C1E6A26F03F063143CF
:101A400019626168914210D84900401EB0FBF1F262
:101A5000521CC2F30B02042A01D2042022E0B0FB84
:101A6000F1F0401CC0F30B001CE0A268F2B301EBE4
:101A7000C10303EB0116431EB3FBF6F35B1C43F4F7
:101A800080431B0549D092B301EBC10202EB011167
:101A9000401EB0FBF1F0401CC0F30B0040F480404E
:101AA00040F400402168CA694CF6FF739A43104322
:101AB000C861D4E9071001432068026822F0C0021F
:101AC00011430160D4E9030101432068826848F2B0
:101AD000FF339A4311438160D4E90501084321682B
:101AE000CA6822F0FF021043C86001E00EE016E071
:101AF0002068016841F0010101602564202084F81C
:101B00003D00256384F83E50002070BD01EB410686
:101B1000431EB3FBF6F35B1CB3E70120C2E701EB06
:101B20004101401EB0FBF1F0401CC0F30B00B7E7D1
:101B3000A086010080841E0000093D0040420F0085
:101B40002DE9FF4F83B00025DDE910799A469346D1
:101B50000446DDF848800095FFF728FF064694F814
:101B60003D0020287CD11923012288492046009677
:101B700001F0CAF90028F5D194F83C0001286FD093
:101B8000012084F83C0020680168C90703D101687E
:101B900041F0010101602068016821F400610160E9
:101BA000222084F83D00402084F83E0025646762CE
:101BB000A4F82A90608D20857548E062CDE9008602
:101BC00053465A462046049901F0A0F800287CD1DB
:101BD000208DDFF8C091202768B1012814D0022899
:101BE000206801681ED041F480610160206841696D
:101BF00080690090BCE020684169816900910168BA
:101C000041F400710160B3E02068016821F4806153
:101C1000016072B62068416981690091016841F4F0
:101C200000710AE041F40061016072B62068416908
:101C300081690091016821F48061016062B697E0DA
:101C4000032865D801280CD0022843464FF0000233
:101C50004946204600960BD001F056F9A8BB0CE08F
:101C600091E032464146204601F0F4F968BB72E04B
:101C700001F04AF948BB72B633E02068016821F4EC
:101C80008061016072B620680069616A0870606AEC
:101C9000401C6062208D401E2085608D401E608546
:101CA0003D4846F2A8110068B0FBF1F0C0EBC0005F
:101CB00000EB80000090401E009007D02068406933
:101CC000C04340070DD50098F5E727E044F8305FA2
:101CD0006773A573206940F02000206162B6257308
:101CE0001CE02068016841F400710160206800690F
:101CF000616A0870606A401C6062218D491E2185FE
:101D0000618D491E618562B621680969017026E00E
:101D100032464146204601F09DF918B1012007B036
:101D2000BDE8F08F20680069616A0870606A401C35
:101D30006062208D401E81B22185608D401E6085CD
:101D400020684269D243520712D4032903D10168A3
:101D500021F48061016020680069616A0870606A2E
:101D6000401C6062208D401E2085608D401E608575
:101D7000208D00287FF464AF84F83D7084F83E50D5
:101D800084F83C50CBE70220C9E7000002001000B5
:101D90000000FFFF04000100380000202DE9FF4F84
:101DA00083B09A46DDE9119793460446DDF84080FA
:101DB000FFF7FCFD054694F83D0020287FD119234C
:101DC000012240492046009501F09EF8002876D176
:101DD00094F83C00012872D0012084F83C0020686F
:101DE0000168C90703D1016841F001010160206861
:101DF000016821F400610160212084F83D00402049
:101E000084F83E0000262664C4F82480A4F82A90B2
:101E1000608D20852C48E062CDE9007553465A4616
:101E20002046049900F0F0FF70B930E02A463946A8
:101E3000204601F047F958B1206C042804D12068ED
:101E4000016841F400710160012007B0BDE8F08F26
:101E5000606A216800780861606A401C6062218DB8
:101E6000491E89B22185628D521E6285226853699E
:101E7000DB435B070BD469B100781061606A401CDA
:101E80006062208D401E2085608D401E6085208D03
:101E90000028CBD12A463946204601F009F800280F
:101EA000CAD154F83D0B016841F400710160202053
:101EB00004F81E09E67766770020C6E7FFE70220F0
:101EC000C3E70000020010000000FFFF30B585B03E
:101ED000002100910191029103911E4D03681E4C57
:101EE000122103221D48AB4216D1A36943F0080317
:101EF000A361A369039203F008030493C023CDE90F
:101F000000316946FFF758FCE06940F40010E061D9
:101F1000E06900F4001019E0114DAB4217D1A3693C
:101F200043F00803A361A369039203F00803049339
:101F30004FF44063CDE900316946FFF73DFCE069AD
:101F400040F48000E061E06900F48000049005B096
:101F500030BD00000054004000100240000C014061
:101F6000005800400248816802781144816070473F
:101F70002C000020074810B5016841F010010160F5
:101F8000032000F075F80F2000F006F800F024F8A8
:101F9000002010BD0020024070B50D4D04464FF4E6
:101FA0007A712878B1FBF0F00A490968B1FBF0F0CA
:101FB00000F0C5FD48B9102C07D200222146501E62
:101FC00000F036F800206C6070BD012070BD00008C
:101FD0002C000020380000200C4808B5816941F031
:101FE00001018161816901F001010091C16941F044
:101FF0008051C161C06900F0805000900448416880
:1020000021F0E06141F00071416008BD0010024024
:1020100000000140002809DB00F01F02012191406F
:102020004009800000F1E020C0F800117047000076
:10203000F0B40E4B1B680C46C3F30223C3F1070533
:10204000042D00D90425191D072901D2002300E021
:10205000DB1E012606FA05F1491E214099409E40EB
:10206000761E16403143F0BC01F0DCBE0CED00E002
:10207000064900F0070208684FF6FF03184040EADF
:102080000220034A10430860704700000CED00E096
:102090000000FA052DE9F0470F46050061D0434ED8
:1020A000306800F00700B84209D2306820F007001D
:1020B00038433060306800F00700B84251D12868DA
:1020C0003B4C810712D5400703D5606840F4E060BF
:1020D00060602878000703D5606840F46050606055
:1020E0006068A96820F0F000084360602878C007A5
:1020F00028D06868012810D02168022810D08907EC
:1021000000292EDA616821F0030101436160FFF7C5
:102110004DFC804641F288390DE021688903EFE7E4
:102120008901EDE7FFF742FCA0EB0801494502D920
:102130000320BDE8F0876068696800F00C00B0EB30
:10214000810FEFD1306800F00700B8420BD930683A
:1021500020F0070038433060306800F00700B842D4
:1021600001D00120E5E72878400705D56068E968D7
:1021700020F4E060084360602878000706D56068B6
:10218000296920F4605040EAC100606000F038F82E
:102190006168084AC1F30311515CC84006490860F0
:1021A00006480068FFF7F8FE0020C2E70020024062
:1021B00000100240986B000838000020300000201A
:1021C0000448054900684968044AC1F30221515C8A
:1021D000C84070473800002000100240A86B00087B
:1021E0000448054900684968044AC1F3C221515CAA
:1021F000C84070473800002000100240A86B00085B
:102200000E4A51680E4801F00C03042B11D0082B24
:102210000FD10C48C1F38343C903C05C0AD5516890
:10222000084AC1F34041921E515C054A5043B0FB3D
:10223000F1F0704704494843704700000010024025
:1022400000127A00886B000800093D002DE9F84F64
:10225000040070D02078C04DC00749D06868C0F332
:102260008100012807D06868C0F38100022809D1E5
:102270006868C00306D52868800339D560680028DF
:10228000E7D035E06068B0F5803F0BD010B1B0F515
:10229000A02F11D0286820F480302860286820F40E
:1022A000802002E0286840F480302860606890B1A7
:1022B000FFF77CFB06460AE0286840F4802028608F
:1022C000F0E700BFFFF772FB801B642873D8286813
:1022D0008003F7D50CE0FFF769FB064605E000BF79
:1022E000FFF764FB801B6428F0D828688003F7D4CC
:1022F00020789A4E80074FF001094FF0000839D539
:10230000686810F00C0F07D06868C0F381000228DD
:1023100009D16868C00306D42868800714D52069ED
:10232000012808D110E02069B0B1C6F80090FFF78D
:102330003DFB074605E00AE1FFF738FBC01B02281A
:10234000C4D828688007F7D52868616920F0F800AC
:1023500040EAC10028600DE0C6F80080FFF726FBC8
:10236000074604E0FFF722FBC01B022823D8286899
:102370008007F7D4207800072CD57948A169D9B116
:10238000C0F80090FFF712FB074604E0FFF70EFBD2
:10239000C01B02280FD8686A8007F7D571484FF430
:1023A000FA510068B0FBF1F0009000BF0098411EA8
:1023B0000091FAD20EE080E0C0F80080FFF7F6FA54
:1023C000074604E0FFF7F2FAC01B022875D8686AD6
:1023D0008007F7D42078400760D5E8690027C0005F
:1023E00008D4E86940F08050E861E869012700F00E
:1023F000805000905C480168C90513D40168834689
:1024000041F480710160FFF7D1FA824606E000BF17
:10241000FFF7CCFAA0EB0A0064284ED8DBF80000E6
:10242000C005F5D5E06801280AD008B1052813D009
:10243000286A20F001002862286A20F0040002E0E7
:10244000286A40F001002862E06841F2883B98B1B8
:10245000FFF7ACFA82460BE0286A40F004002862DD
:10246000EEE700BFFFF7A2FAA0EB0A0159455AD8E0
:10247000286A8007F6D50CE0FFF798FA824605E057
:10248000FFF794FAA0EB0A0159454CD8286A800757
:10249000F6D41FB1E86920F08050E861E06988B3A4
:1024A0006968C1F38101022944D00228C6F860801E
:1024B00004D0FFF77BFA044638E034E0FFF776FA01
:1024C000074604E0FFF772FAC01B02282BD82868E1
:1024D0008001F7D4206AB0F5803F05D16868A16813
:1024E00020F4003008436860D4E9080108436968B3
:1024F00021F4741108436860C6F86090FFF756FA3B
:10250000044606E025E000BFFFF750FA001B022852
:1025100009D828688001F7D51BE000BFFFF746FA0D
:10252000001B022802D90320BDE8F88F286880012B
:10253000F4D40EE00128F7D06868226A00F48031F4
:10254000914204D1616A00F47010884201D00120E8
:10255000EAE70020E8E700000010024000004242E5
:1025600080044242380000200070004070B5040032
:1025700009D0606A002540B125616561A56294F8C3
:10258000510040B10CE0012070BD6068B0F5827F61
:10259000F4D0E561F2E784F85050204600F040F8AE
:1025A000022084F851002068016821F04001016098
:1025B000A088218900F4827001F404410843A189B4
:1025C00001F400610843217C01F002010843217DF0
:1025D00001F001010843218B01F400710843217FC0
:1025E00001F03801084394F8201001F080010843FD
:1025F000218D01F40051084321680860A06904217D
:1026000001EA1040216848602068C16921F4006136
:10261000C1616565012084F85100002070BD000093
:1026200030B585B0002400940194029403940068AE
:102630001549884225D11548C16941F48041C161DD
:10264000C16901F480410491816941F0080181610F
:1026500080690F4D00F0080004904FF42040009076
:10266000022001900320039069462846FFF7A4F852
:102670004FF48040CDE90004694628460294FFF7F4
:102680009BF805B030BD000000380040001002404B
:10269000000C01402DE9F84F044690F851001D460A
:1026A00016460F46012838D160684FF00408B0F58F
:1026B000827F01D1A06830B3FFF778F98246002FFE
:1026C00075D0002E73D094F85000012825D04FF01B
:1026D000010984F8509084F851804FF00008C4F844
:1026E0005480A763A687E687C4F83080A4F83480B6
:1026F000A4F83680C4F84080C4F84480A068B0F5DF
:10270000004F0CD015E084F85180009313460A4620
:10271000204600F01CF9BDE8F88F0220FBE7206896
:10272000016821F0400101602068016821F48041C6
:10273000016020680168490603D4016841F0400146
:102740000160E068C0B134E020688168C90709D041
:10275000007BA16B0870A06B401CA063E08F401E43
:10276000E08709E0FFF722F9A0EB0A00A84202D3B4
:10277000681C01D032E085B3E08F0028E4D11BE073
:1027800020688168C90709D0C068A16B0880A06B68
:10279000801CA063E08F401EE0870AE0FFF706F987
:1027A000A0EB0A00A84203D3681C02D016E012E096
:1027B0009DB1E08F0028E3D152462946204601F022
:1027C0004EF908B12020606584F8519084F850805B
:1027D000606D00289FD001209DE7FFE784F85190AD
:1027E00084F85080032096E72DE9F84F9846164666
:1027F0008A460446FFF7DAF8814694F8510001282A
:102800001ED1BAF1000F73D0002E71D094F8500091
:10281000012815D0012784F85070032084F8510056
:1028200000256565C4F830A0A686E686A563A58761
:10283000E58765642564A068B0F5004F03D00CE01F
:102840000220BDE8F88F2068016821F04001016096
:102850002068016841F480410160206801684906F0
:1028600003D4016841F040010160E068B0F5006FF9
:10287000606803D048B3012E27D047E008B1012E8D
:102880001FD1206B21680088C86006E0206881683D
:10289000890709D5216B0988C160206B801C2063E2
:1028A000E08E401EE0860CE0FFF780F8A0EB090107
:1028B000414503D3B8F1FF3F03D035E0B8F1000F35
:1028C00032D0E08E0028E1D123E0206B216800782F
:1028D000087306E02068816889070AD5216B0978AA
:1028E0000173206B401C2063E08E401EE0860DE0EB
:1028F0002BE0FFF75BF8A0EB0901414503D3B8F1EA
:10290000FF3F03D010E0B8F1000F0DD0E08E00289B
:10291000E0D14A464146204601F0CFF808B12020D8
:102920006065A06830B109E084F8517084F85050B7
:10293000032086E72068C1688068009084F85170A1
:1029400004F8505F60680028F3D0012079E72DE992
:10295000FF4F81B01D46934604464FF001090E9E7D
:10296000FFF724F8074694F851006168012806D063
:10297000B1F5827F3CD1A168C9BB042838D1029847
:10298000002871D0BBF1000FFBD0002DF9D094F8D6
:10299000500001282CD04FF0010A84F850A094F880
:1029A0005100042802D0052084F851004FF000089F
:1029B000C4F85480C4F838B0E587A587029921632C
:1029C000E586A586C4F84080C4F844802068016884
:1029D000490603D4016841F040010160E068B0F5A8
:1029E000006F606808D0F0B3012D49D081E0FFE7A7
:1029F000022005B0BDE8F08F08B1012D39D1206B60
:102A000021680088C860206B801C2063E08E401E17
:102A1000E0862EE02068816889070FD5E18E69B1D4
:102A2000B9F1010F0AD1216B0988C160206B801CAC
:102A30002063E08E401EE0864FF000092068816828
:102A4000C9070CD0E18F51B1C068A16B0880A06BA1
:102A5000801CA063E08F401EE0874FF00109FEF765
:102A6000A5FFC01B01E00BE067E0B04201D3701C82
:102A700050D1E08E0028CDD1E08F0028CAD13EE0B1
:102A8000206B216800780873206B401C2063E08E67
:102A9000401EE0862DE02068816889070FD5E18E11
:102AA00069B1B9F1010F0AD1216B09780173206B6B
:102AB000401C2063E08E401EE0864FF00009206835
:102AC0008168C9070CD0E18F51B1C068A16B087053
:102AD000A06B401CA063E08F401EE0874FF001090F
:102AE000FEF764FFC01BB04202D3701C01D011E09E
:102AF00086B1E08E0028CED1E08F0028CBD13A46B7
:102B00003146204600F0D9FF50B12020606584F89E
:102B1000508012E084F851A084F85080032068E7C8
:102B2000A06818B92068C1688068009084F851A036
:102B300084F85080606D0028F1D0012059E710B56D
:102B4000401EB0F1807F01D3012010BD4FF0E02482
:102B500060610F21601701F065F90020A061072076
:102B60002061002010BD70B5040004D094F841002D
:102B7000002510B106E0012070BD84F840502046C9
:102B800000F024F8242084F841002068C16821F472
:102B90000051C160204601F09BF82068016921F4D2
:102BA000904101612068416921F02A01416120685A
:102BB000C16841F40051C1606564202084F841007F
:102BC00084F842006563002070BD000030B585B018
:102BD00000240094019402940394006814498842EC
:102BE00023D11448C16941F40031C161C16901F4C4
:102BF00000310491816941F00401816180690E4DC9
:102C000000F00400049004200090022001900320B2
:102C1000039069462846FEF7CFFD0820CDE9000461
:102C2000694628460294FEF7C7FD05B030BD000096
:102C30000044004000100240000801402DE9F84324
:102C4000044690F84100984616460D46202802D0CA
:102C50000220BDE8F88385B17EB1002060642120A8
:102C600084F84100FEF7A2FEA6848146E684A068AF
:102C70002027B0F5805F02D003E00120E9E720695A
:102C800010B12E4600250EE000260CE080212046E3
:102C900001F07AF8A8B9C6B116F8010B21684860AE
:102CA000E08C401EE084E08C4B464FF00002CDF8F3
:102CB00000800028EAD14FF04001204601F064F87E
:102CC00040B184F841700320C3E735F8020BC0F32C
:102CD0000800E3E784F841700020BAE7FEE70168E6
:102CE0004A69D24352050FD46FF480624A610021D1
:102CF00040F8301F202242738173026942F00402BF
:102D00000261017301207047002070472DE9F84FE0
:102D10000446006889460B9D01689846174641F4B1
:102D2000806101602068016841F480710160009554
:102D30004FF0011B0022594620460A9B00F0E4F8A0
:102D40004FF4007A40B120680068C00501D5C4F88E
:102D500040A00320BDE8F88F216809F0FE0008615B
:102D60002B46284920460A9A00F016F9F0BB206845
:102D70004169806900902A4620460A9900F0A2F92C
:102D800040B1206C04283AD12068016841F40071F8
:102D9000016034E0FEB2B8F1010F09D02168380AB1
:102DA00008612A4620460A9900F08CF90028E8D1EB
:102DB000206806612A4620460A9900F083F9002817
:102DC000DFD12068016841F4807101600095002224
:102DD000594620460A9B00F097F80028B3D1216895
:102DE00009F0FF0040F00100086100E007E02B4619
:102DF000044920460A9A00F0CFF80028AAD0012002
:102E0000A8E70000020001002DE9F843044600682D
:102E10000D46DDE9089701689846164641F4807131
:102E200001604B4600224FF001112046009700F050
:102E30006BF848B120680068C00502D54FF40070F7
:102E400020640320BDE8F883216805F0FE000861D6
:102E50003B464A461549204600F09EF888B920684E
:102E60004169806900903A464946204600F02AF9B7
:102E700048B1206C042804D12068016841F4007135
:102E800001600120DEE7F5B2B8F1010F09D0216839
:102E9000300A08613A464946204600F013F90028F6
:102EA000E7D1206805610020CCE7000002000100A6
:102EB00070B516460D4604461EE02046FFF70FFF8C
:102EC00008B1012070BD681C16D0FEF76FFD801B95
:102ED000A84200D885B920684069C04340070BD597
:102EE000002044F8300F20216173A073216941F064
:102EF000200121612073E4E720684069C043400756
:102F0000DBD4002070BD00002DE9F047984617463D
:102F10000D460446C1F30746DDF820902AE000BFC5
:102F2000B8F1FF3F26D0FEF741FDA0EB0901414576
:102F300002D8B8F1000F1DD12068012E16D080698B
:102F400025EA00000004000C12D00020B84211D184
:102F5000002044F8300F20216173A073216941F0F3
:102F60002001216120730120BDE8F0874069E7E777
:102F70000120EBE72068012E0AD0806925EA0000D5
:102F80000004000C06D00020B842C9D00020EBE7B6
:102F90004069F3E70120F7E72DE9F0479846164628
:102FA0000D4604464FF000094FF0200AC1F30747D1
:102FB00023E020684069C043400515D420680168BB
:102FC00041F40071016021686FF480604861C4F8C9
:102FD000309084F83DA084F83E90216C41F00401CB
:102FE000216484F83C9021E0701C06D0FEF7DEFCE2
:102FF000A0EB0800B04203D816B1012F1FD021E08A
:103000002068012F15D0806925EA00000004000C1B
:1030100018D000BF44F8309F84F80DA084F80E90BB
:10302000216941F02001216184F80C900120BDE864
:10303000F087406925EA00000004000CEAD120680E
:10304000406901E02068806925EA00000004000C66
:10305000AFD1ECE72DE9F041002590460E4604463D
:10306000202728E04069C043C0060CD454F8301B28
:103070006FF01000486144F810596777A577206A0F
:103080002062257714E0FEF791FCA0EB0800B04227
:1030900000D886B920684069C04340060BD544F883
:1030A000305F6773A573206940F0200020612573AD
:1030B0000120BDE8F08120684169C9434906D1D4A7
:1030C0000020F6E770B516460D4604461EE0204681
:1030D000FFF705FE08B1012070BD681C16D0FEF791
:1030E00065FC801BA84200D885B920684069C043B0
:1030F00000060BD5002044F8300F20216173A07327
:10310000216941F0200121612073E4E720684069D2
:10311000C0430006DBD4002070BD00002DE9F0475D
:1031200086B0002542480095019502950395816976
:1031300041F010018161816901F010010491816900
:1031400041F020018161816901F0200104918169D0
:1031500041F004018161816901F0040104918169F8
:1031600041F0080181618069DFF8C88000F0080043
:103170004FF460440490012221464046FEF711FCC2
:10318000DFF8B490012273214846FEF70AFC0122C1
:10319000DFF8A8A0170339465046FEF702FC00945A
:1031A00001240326CDE90246694640460194FEF714
:1031B00003FB6320CDE90004CDE902466946484699
:1031C000FEF7FAFA10208DE831006946484603946C
:1031D000FEF7F2FACDE90074CDE9024669465046A1
:1031E000FEF7EAFA4FF4E06000901548CDE90104DB
:1031F00069464846FEF7E0FA2020CDE90005694619
:1032000050460295FEF7D8FA002211461720FEF725
:103210000FFF1720FEF7FEFE002211462820FEF7C2
:1032200007FF2820FEF7F6FE06B0BDE8F087000095
:10323000001002400010014000080140000C014055
:10324000000021100D4810B50B4901600C49416088
:1032500000214FF480428160C0E903124161816125
:10326000C1610162FEF7A8FB002803D0BDE8104051
:10327000FEF73EBA10BD000000540040BC2C0020F8
:10328000A08601000D4810B50B4901600C49416052
:1032900000214FF480428160C0E9031241618161E5
:1032A000C1610162FEF788FB002803D0BDE8104031
:1032B000FEF71EBA10BD000000580040102D00207F
:1032C000A0860100104810B50E4901604FF48271CC
:1032D0004160002102228160C0E9031201224261A3
:1032E000520282611022C0E90721416281620A21F3
:1032F000C162FFF73BF908B1FEF7FAF9BDE81040EB
:10330000FEF75EB800380040642D00200C4810B570
:103310000A4901604FF4E1314160002181600C22D3
:10332000C160C0E904128161C161FFF71CFC002883
:1033300003D0BDE81040FEF7DBB910BD00440040EB
:10334000BC2D00202DE9FF4F524C9A46DFF848C1B2
:10335000D4E90253934683B06421ACF5FA624FF48A
:10336000FA7900BF02EB810652F82100A6F58056DB
:10337000E046C6F8700E0CEB8106A6F580565CF8A8
:103380002170C6F8707E984200D20346A84200D948
:103390000546491C4945E5DBC4E902534FF4C875AD
:1033A0003E4E3F4F06EB850050F8040CA0612021F3
:1033B0003846FEF7F1FA0128F9D0364906222431C1
:1033C000072000F071F833482430017842788907EB
:1033D000890B41EA022781780F4346F82570C178AE
:1033E00002798907890B407941EA0221014348F8B3
:1033F0002510A669D4E90201B742A0EB010014D957
:1034000001F0E4FA0090B81B01F0E0FA009901F035
:10341000E7F9244901F0EEFAE06101F0A3FA216A2C
:10342000081A206217D5002014E001F0CFFA0090AE
:10343000F01B01F0CBFA009901F0D2F9194901F023
:10344000D9FAE06101F08EFA216A08442062FF286F
:1034500001DDFF202062039861696D1C0160049802
:10346000A1784D4501702169CBF8001061788AF888
:10347000001095DB074A921C02F11201501E8DE8E4
:1034800007000B1F054A0448616800F00DFE07B0F5
:10349000BDE8F08F00000020EC2300201C1C002061
:1034A000000C014000007F43F8B514460D46064667
:1034B00001226946002000F047F8012269461046C3
:1034C00000F042F822462946304600F03DF8F8BDAB
:1034D00010B500F047F80122C021022000F09CF84E
:1034E00001220021032000F097F80122002104208E
:1034F00000F092F801220021052000F08DF8012251
:103500000021062000F088F801220F21082000F099
:1035100083F801220321092000F07EF801222721EF
:103520000A2000F079F8012224210C2000F074F820
:10353000012224210D2000F06FF801227F21BDE837
:103540001040102000F068B80EB564238DE80E001E
:1035500002460123AF210248FEF7F2FA0EBD000039
:10356000BC2C002010B501224021092000F054F8A5
:1035700001224021BDE81040092000F04DB80000B4
:10358000FEB50025204E214C2CE0214F202138464D
:10359000FEF702FA0128F9D01C490622243107203F
:1035A000FFF782FF1949243108784A788007800B99
:1035B00040EA02208A78104346F82500CA780B7941
:1035C0009207920B497942EA03220A43114941F8D2
:1035D0002520E168884200D2E060A168884200D9D5
:1035E000A0606D1C60688542CFDB084A921C02F126
:1035F0001201501E8DE807000B1F034A0548616841
:1036000000F052FDFEBD00001C1C00200000002048
:10361000000C0140EC23002007B584B005ABCDE9D8
:1036200000326421029102460123AE210248FEF7D6
:10363000B5FB07B000BD0000BC2C0020FEE7FEE794
:1036400030B40021084B0A465FF0000003EBC004D1
:10365000401CC0B262548028F8D3491CC9B2082962
:10366000F2D330BC00F0CAB83C00002030B10128D1
:1036700007D100215FF0A70000F0AEB90021A6201D
:10368000FAE7704710B558B1012810D10021C020C9
:1036900000F0A2F90021A020BDE8104000F09CB984
:1036A0000021C82000F098F90021A120F4E710BD06
:1036B00030B5CC0801F0070301259D40EBB2064D63
:1036C00005EBC005C808285C0AB1184302E063EAAC
:1036D0000000C043285530BD3C00002070B5424D6D
:1036E0004FF40044002221462846FEF75AF9C8202C
:1036F000FEF730F8012221462846FEF752F9002154
:10370000AE2000F069F90021084600F065F90021BB
:10371000102000F061F90021402000F05DF9002147
:10372000812000F059F90021CF2000F055F9002147
:10373000A12000F051F90021C82000F04DF900212E
:10374000A62000F049F90021A82000F045F9002149
:103750003F2000F041F90021D32000F03DF9002185
:10376000084600F039F90021D52000F035F9002194
:10377000802000F031F90021D92000F02DF900213E
:10378000F12000F029F90021DA2000F025F90021CC
:10379000122000F021F90021DB2000F01DF90021AA
:1037A000402000F019F90021202000F015F9002137
:1037B000022000F011F900218D2000F00DF9002108
:1037C000142000F009F90021A42000F005F90021DF
:1037D000A62000F001F9FFF733FFBDE8704000219B
:1037E000AF2000F0F9B800000010014002460120AF
:1037F00000E05043491EC9B2FBD2704770B5114E6C
:10380000002400BF04F1B000C0B2002100F0E4F8D1
:103810000021084600F0E0F80021102000F0DCF85C
:103820005FF0000506EBC5000121005D00F0D4F853
:103830006D1CEDB2802DF5D3641CE4B2082CE1D3ED
:1038400070BD00003C0000202DE9FC4F1C460E46D8
:1038500082468B460190082B0DD0600700D00120D6
:1038600000EBD40061084843C0B28146203AD0B290
:10387000009000204BE00620F7E7082C13D00C2C1A
:1038800018D0102C1BD0182C44D10098234900EBE1
:10389000C00000BF01EB8001002711F80850E807C5
:1038A00012D00B9A13E000981D4900EB400001EB89
:1038B0004001F1E700981B4900EB4000EAE71A4994
:1038C000009801EB0011E7E70B9828B3002231467E
:1038D0005046FFF7EDFE761C7F1C6D08FFB2F6B276
:1038E000082FDCD30AF1010000F0FF0A082C0AD0EF
:1038F0000199AAEB0100B0EB540F04D10BF10800C1
:103900008A4600F0FF0B08F101005E46C0B2804617
:103910004845B2D3BDE8FC8F0122D8E70C59000816
:10392000804C0008A84E00081C5300082DE9F84FF1
:103930000025DDE90A691F4692468B468046082E1F
:1039400000D1022500241CE0381B401EC1B20A2011
:10395000FFF74CFFBAFBF0F00A21B0FBF1F201FBDC
:103960001200CDF8009080B13030C2B205EB5601A4
:1039700001FB0480C0B233465946FFF765FF641C63
:10398000E4B2BC42E0D3BDE8F88F05EB560101FB81
:103990000480C0B233463022EEE72DE9F8411E46DE
:1039A000154688460446079F0BE0334641462046AD
:1039B0000097FFF749FF082E0AD004EB5600C4B267
:1039C0006D1C2A78A2F120005E28EED9BDE8F881AE
:1039D000A41DE4B2F4E700002DE9F0471D4C0546B4
:1039E00009B1012200E0002201212046FDF7D9FFA4
:1039F00000220221A0462046FDF7D3FF164F0024E7
:103A00004FF480494FF40056002231463846FDF706
:103A1000C8FF280601D5012200E0002249463846A9
:103A2000FDF7BFFF012231463846FDF7BAFF6806B1
:103A3000641C050EE4B2082CE6D3012202214446A0
:103A40004046FDF7AEFF2046BDE8F0470122114693
:103A5000FDF7A7BF00080140001001407047F8B50E
:103A6000044640684FF48273984217D1A0684FF41F
:103A70008065B0F5004F01D0A8420FD120680668DC
:103A800026F0400606606068984207D1A068A84208
:103A900004D100920B460022012103E000920B4664
:103AA00000228021204600F023F8002804D0606D19
:103AB00040F0200060650320F8BDF8B515460E46BD
:103AC0000B46009204460122022100F011F840B991
:103AD0003346002280212046009500F009F8002896
:103AE00004D0606D40F0200060650320F8BD000048
:103AF0002DE9F8431E46914688460446089DFDF789
:103B000055FF401B351AFDF751FF07462548006851
:103B1000C0F3CB30684338E0701C37D0FDF746FF68
:103B2000C01BA84203D215B1009860B32CE02068F6
:103B3000416821F0E00141606068B0F5827F0BD1FF
:103B4000A068B0F5004F02D0B0F5806F04D12068B6
:103B5000016821F040010160A06AB0F5005F09D161
:103B60002068016821F4005101602068016841F477
:103B700000510160012084F85100002084F85000B9
:103B80000320BDE8F8830025401E0090206881686E
:103B900038EA010004D000214945BDD10020F0E7FA
:103BA0000121F9E7380000207047000000B585B01A
:103BB0000020019003900948816941F0080181616A
:103BC0008069694600F008000490102000900120F0
:103BD00002900348FDF7F0FD05B000BD0010024063
:103BE000000801400B4800B5816985B041F008012B
:103BF00081618069694600F00800049010200090FF
:103C0000012001900290022003900348FDF7D4FDAB
:103C100005B000BD0010024000080140FEF7A2B947
:103C200030B58FB028216846FCF7F2FB14210AA8B2
:103C3000FCF7EEFB01210804CDE9001000240294FA
:103C400002250491CDE907504FF4E0100990684631
:103C5000FEF7FCFA08B172B6FEE70F20CDE90A05BF
:103C60004FF48060CDE90C4002210AA80E94FEF7C3
:103C700011FA002801D072B6FEE70FB030BD7047D0
:103C800001680C3151E8002F22F4907241E80023C2
:103C9000002BF5D10168143151E8002F22F0010208
:103CA00041E80023002BF5D1016B012909D10168FE
:103CB0000C3151E8002F22F0100241E80023002BC4
:103CC000F5D1202180F842100021016370470000E7
:103CD00070B5044600680169E26821F4405111435F
:103CE00001612169A0680843616908432168CA68C5
:103CF00041F20C639A430243CA6020684169A26999
:103D000021F44071114341611E492068884202D16B
:103D1000FEF766FA01E0FEF753FA00EBC00101EB93
:103D20000012606864218000B2FBF0F3B3FBF1F392
:103D30006FF018067343B2FBF0F5B2FBF0F605EB3B
:103D40008305322303EB0515B5FBF1F5B6FBF1F660
:103D500005F0F00505EB0615B2FBF0F6B2FBF0F04E
:103D6000B0FBF1F06FF01802504306EB800003EB5C
:103D70000010B0FBF1F0216800F00F0028448860CB
:103D800070BD0000003801402DE9F8439846174601
:103D90000D460446089E24E0701C22D0FDF706FE66
:103DA000A0EB0800B0421AD8CEB12068C16849071C
:103DB00017D5802D15D0402D13D00168C9430907B0
:103DC0000FD401680025406800902046FFF758FF97
:103DD0000820606484F840500120BDE8F883032087
:103DE000FBE72068006835EA000004D00020B842F4
:103DF000D2D00020F1E70120F9E7FEE7490050EAC0
:103E0000C12018BF04204A0D18BF40F0010040F245
:103E1000FF72B2EB515F08BF40F00200012808BFFB
:103E2000052070470907090E002804DB00F1E02097
:103E300080F80014704700F00F0000F1E02080F8D7
:103E4000141D704730380A2801D201207047002025
:103E5000704700002DE9F0414FF0E0240546A769C6
:103E6000FDF7A4FD064605EBC500C500BD420BD914
:103E7000FDF79CFDB042FBD00849781B0844A169BE
:103E80008142FCD8BDE8F0817D1BA069A842F9D928
:103E9000FDF78CFDB042F8D0F4E7000040190100B6
:103EA00096B0FEF767F8FFF7BBFEFFF737F9FFF7AD
:103EB000E9F9FFF7C7F9FFF705FAFFF727FAFFF768
:103EC0000DFC0020FFF7D2FB0020FFF7DBFBFFF724
:103ED000B7FBFFF7FDFAFFF753FBFDF781FAFDF79C
:103EE0007DFBDFF850914FF001084FF6FF7B04A8EF
:103EF000FDF736FB9DF814009DF810309DF8112059
:103F00009DF812108DE80F009DF815309DF81620D1
:103F100049A108A8FCF768F90021082308AA084667
:103F2000CDF80080FFF739FDFFF768FC0FAB15AA4D
:103F30000EA90DA8FFF706FA9DF83800012821D137
:103F40009DF83C0001281DD1444608233FA20A21C8
:103F5000CDF80080FFF721FD0820CDE90004032300
:103F60000A2114200D9AFFF7E1FCFFF747FC38A166
:103F700010A80D9AFCF738F95B46062210A93648BE
:103F8000FEF75CFE06A8FDF740FABDF91800012116
:103F9000FDF784FA8246BDF91A000121FDF77EFA89
:103FA0000446BDF91C000121FDF778FA00F0ECFB96
:103FB00006460F46204600F0E7FB04460D465046F5
:103FC00000F0E2FB8DE8F00002460B4623A108A8B2
:103FD000FCF70AF94446082308AA14210020CDF86A
:103FE0000080FFF7DAFCFFF709FC5B46152208A901
:103FF0001948FEF723FEFDF77DFB024608231E212C
:104000000120009400F0D4FAFFF7F8FB99F80000C3
:10401000032804D04FF4FA70FDF79CFB67E74FF4D8
:104020009670FDF797FB002189F80010FFF708FB59
:1040300000F0E0FA2A00002025642D25642D256477
:104040002025643A25643A256400000048523A006D
:1040500048523A2530336400BC2D0020783A252E92
:10406000326620793A252E3266207A3A252E32663B
:10407000000000002DE9F8418046DDE907060090C8
:1040800017460C46099D404600F0EEF933463A4685
:104090002146404600F01EFA2068A84200DB284670
:1040A0002060BDE8F88100002DE9FF4FBFB00E464B
:1040B00000211C4608464C9D04E03F9A52F82020FF
:1040C000401C1144B042F8DBB1FBF6F20020E1499C
:1040D00006E03F9B53F820309B1A41F82030401CEB
:1040E000B042F6DB00204FF4F87C00BF01EB800209
:1040F00051F820305768E3463B44D2E902723A4413
:104100001A44D31702EB9372921041F82020401CFE
:104110005845EBDBD04A00204FF4F77301EB8007E2
:1041200051F820C07F688946A7EB0C0742F8207041
:10413000401C9842F2DD002002EB800752F820106C
:104140007F689A46394401EBD171491042F820103A
:10415000401C5045F0DBC14F00209646002301462D
:10416000421D08E0A1EB00085EF821C037F8188076
:10417000491C0CFB18339142F4DB40F27A4193FB6B
:10418000F1F14EF82010401C7346B0F5F47FE5DDE8
:10419000002211464FEA0A0753F82100002800DCEC
:1041A0004042491C02445145F6DD40F2EF1392FBB8
:1041B000F3F00822CDE9000205210291A64A3DA9AB
:1041C00012A8FFF757FF00213D9B12A88E46022B35
:1041D0001BDB01220AE000BF00EB820C50F82270CA
:1041E0005CF804CC521CA7EB0C0739449A42F3DB71
:1041F0005A1E91FBF2F141F2707292FBF1F24D996D
:104200000A604E9A0121117005E04D9A944911609F
:104210004E9A82F800E0002107E000BF50F821200C
:1042200021AF921C47F82120491C9942F6DB00205F
:10423000C8460BE03F9951F8201048F820104199EA
:1042400051F82020874941F82020401CB042F1DB82
:104250000022164628E000BF21A84FF0010950F8BF
:1042600026004FF08077411D51451CDCA0F1050C64
:10427000BCF1000F17DD401F0FE000BF58F820C051
:10428000BC4509DAB9F1000F01D04FF000096746CB
:104290000DF10C0C4CF82600401C8842EEDBB9F105
:1042A000000F00D1521C761C9E42D5DB022A06DA92
:1042B0006B48206085F800E043B0BDE8F08FDFF880
:1042C000A4C1002008EB800158F820304E68E14678
:1042D0003344D1E9026131441944CB1701EB9371A6
:1042E000891048F820100CEB80035CF820605F68B0
:1042F0003E44D3E902733B443344DE1703EB967329
:104300009B104CF82030401C5845DBDB00200DF1A1
:10431000E00B3E9000214BF82010401C0528F9DBF3
:1043200000204FF4FA7309E003A951F820109942D4
:1043300003DD4B48206000208AE0401C9042F3DB04
:104340000023A2F1010A61E003A800EB830650F804
:1043500023E076684FF07F42A6EB0E0011463090C6
:104360000A2852DD7046CC460DE000BF58F8207098
:104370008F4201DD394633905CF82070974201DDB1
:104380003A463290401C8642F0DC59F826C059F873
:104390002E000190ACEB0000DDF8C8C0ACEB0E07BE
:1043A0007843309F90FBF7F7019807EB000C329FA2
:1043B00059F82770A7EB0C07029758F8260058F811
:1043C0002E60DDF8CCC0801BACEB0E077843309F2D
:1043D00090FBF7F03044329E029F58F826604F431E
:1043E000301A5043F911C01100280EDD3E9A052AFB
:1043F0000BDA51B101EB8101890091FBF0F23E989B
:104400004BF820203E98401C3E905B1C53459BDBA4
:1044100058463E9900F094F83E9800EBD07040105A
:1044200001280ADD0BEB80025BF8200052F8042C17
:10443000104400EBD070401001E05BF82000C11E7A
:10444000B529BFF476AF05493E31085C20600120F4
:10445000287031E77C0C0020BC040020906A000822
:1044600019FCFFFF4C1400202DE9F0438146002485
:104470000120DDF81C805E1E0C6026E052F82070E2
:10448000474521DD02EB800454F8044CA7421BDDB4
:10449000012500E06D1C44199C4203DA52F824C047
:1044A0006745F7D0054452F82550AF420ADD0D6844
:1044B0000F2D07DA4FEA850C6D1C0D6049F80C00D2
:1044C000601C02E0204600E0401CB042D6DBBDE8A4
:1044D000F08300002DE9F0431E4613460C460A689F
:1044E00005460146184600F045F84FF0FF384046B3
:1044F0001CE00A46411CC6F10009216013E000BF20
:1045000055F82170431C19D055F82030FB1AB342DE
:1045100001DC4B4506DA23684FEA830C5B1C236001
:1045200045F80C70491C9142EADB401C216881422D
:10453000DFDC2846BDE8F04300F002B84346E5E77B
:1045400030B5012312E000BF50F823401A4602E0C4
:1045500040F82250521E002A05DD00EB820555F876
:10456000045CA542F4DC40F822405B1C8B42EBDB90
:1045700030BD0000F0B5012416E000BF51F8245012
:10458000234602E041F823605B1E002B09DD01EBAE
:10459000830650F8257056F8046C50F826C067451D
:1045A000F0DC41F82350641C9442E7DBF0BD0000CE
:1045B0002DE9FC4107460CA01D46006801900E46FF
:1045C000089C104600F0E0F802460B4607A101A83F
:1045D000FBF70AFE2B4601AA314638460094FFF746
:1045E000DCF9BDE8FC81000020000000252E3033FE
:1045F0006620430008B501200090082303A214217F
:104600000020FFF7CAF9FFF7F9F8FEE7313233006F
:1046100010B500290AD00878002807D0054878444A
:10462000FCF7CCFA002801D0002010BD02487844E5
:1046300010BD00005A2600005226000021F0004262
:10464000A2F16052B2F5801F01F0004328BFD2F101
:104650007F6C0BD95FEA001C43EAC20242EB507048
:1046600018BF704728BF20F001007047B2F5801FC7
:10467000BCBF184670474FEA410C1CF5001F02D220
:10468000084600F07EBA70B500F029F800000089F5
:10469000FFF7F6BF4FF00040A0F580007047000024
:1046A00002494FF0000000F073BA00BF0000F87F2D
:1046B00010F0004248BF4042B0FA80F310FA03F114
:1046C0000AD0C3F11D0303F580634FEA415002EBAA
:1046D000035202EBD12170474FF0000070470EF1FA
:1046E000020E2EF0030E5EF8046B364205D4012A4A
:1046F00043EB030515F5001F12D8012841EB010C0F
:104700001CF5001F0CD80ED14FEAD17C15F5001F07
:104710000CEB4C0C0CF1020C08BF4CEBD37C04E00E
:104720004FF0080C01E04FEAD37C0CEB4C0526FA65
:1047300005F606F00706B6F1040C06D20EEB860C61
:10474000BDE870404CF0010C6047DFE80CF0090B4D
:1047500002024FF000414FF00000A1F5002170BDB2
:1047600019461046012851EB010418BFD4F5001476
:1047700084BF002001F0004170BD0808A0F50011C1
:104780004FEA31017047000043004FEAD30C4FEA73
:104790003C0C43401FBF40070CF1605113F0FE4F2B
:1047A00070471CF0006F03D100200CF000417047EF
:1047B0000CF0004343EA507010B540EACC0000F022
:1047C0009AF900BF000000924FEA0001FFF7D5BF41
:1047D0004FF000414FF00000A1F5002170470000AC
:1047E0004FF47F0C1CEAD0121EBF1CEAD11392EAD0
:1047F0000C0F93EA0C0F00F0858090EA010F48BF80
:1048000042F4807240F4000C41F400002CF07F412F
:1048100020F07F4000B58142A2EB03020FF2081C9A
:10482000ACEB504EC0F100009EF800E04FEA4E0E97
:1048300000FB0EFC38BF49004FEA2C1C02F5FA02BF
:104840000CFB0EF34FEACE1E4FEA112C4FEAC121AA
:104850000EEB635E42EB22420EFB0CFC4FEA1C5354
:1048600000FB03114FEA112C4FEA01310EFB0CFC47
:104870004FEADC4C00FB0C11C14228BF09184CEB7D
:1048800003335DF804EB10EB410143EBC250B2F58A
:104890007C0F38BF704729D512F0F00F1CBF00F114
:1048A000C04000F000407047008182838485868785
:1048B00088898B8C8D8E8F919293959697999A9CDF
:1048C0009D9FA0A2A3A5A7A8AAACAEB0B2B3B5B74E
:1048D000B9BCBEC0C2C5C7C9CCCED1D4D7D9DCDF24
:1048E000E2E6E9ECF0F3F7FAFE0000004FEA400CD4
:1048F0000CF1807CBCF17E4F28BF7047B0F1C04006
:1049000000F03FB990EA010F0CEAD11348BF42F41E
:104910008072624538BF634507D213F47F0F16D00B
:1049200080EA010000F00040704710B500F0E3F8A5
:10493000097EFC3E00F005B880EA010000F000406E
:10494000704780EA010000F0004000F01AB912F44C
:104950007F0F04BF0248704780EA010000F011B9E0
:104960000000C07F41000B0ED3F19E0208D950F425
:1049700000034FEA032323FA02F048BF4042704786
:1049800010B500F0B8F800BF4992248000207047AD
:104990006FF0004282EA20007047000010F00041F2
:1049A00048BF4042B0FA80F310FA03F2C3F19D030E
:1049B0000BD051EAC35101EB1220530638BF7047A8
:1049C00000F1010008BF20F001007047B0FA80F349
:1049D00010FA03F2C3F19D030AD0D90501EB1220AE
:1049E000530638BF704700F1010008BF20F00100F6
:1049F000704700004FF47F0C1CEAD0121EBF1CEA67
:104A0000D11392EA0C0F93EA0C0F00F0478090EA62
:104A1000010F48BF42F480724FF0004C4CEA002076
:104A20004CEA012102EB0302A0FB0113A2F50002F4
:104A3000002918BF43F001035B0028BF4FEA33038E
:104A400042EB22425FEA132C4CEBC2502EBFBCEB70
:104A5000436FB2F57C0F70474FEA036CBCF1004F17
:104A600008BF20F00100B2F57C0F38BF70470BD5AE
:104A700082F0FF0212F5803FC8BF704700F1C040CE
:104A8000D8BF00F00040704700F5000C5FEA4C0C06
:104A900048BF7047B0F1C04000F073B890EA010F12
:104AA0000CEAD11348BF42F48072624538BF6345B7
:104AB00004D280EA010000F00040704710B500F019
:104AC0001AF800BF8900013E00F007B800F009B8ED
:104AD0005FEA410C5FEA1C6C08D080EA010000F03C
:104AE00050B85FEA400C5FEA1C6CF6D14FF0004012
:104AF000A0F5800070470EF1020E2EF0030E5EF856
:104B0000044B244204D44FEA4102B2F17F4F11D842
:104B10004FEA4003B3F17F4F0CD80ED14FEAD07C5F
:104B2000B2F17F4F0CEB4C0C0CF1020C08BF4CEBBC
:104B3000D17C04E04FF0080C01E04FEAD17C0CEB93
:104B40004C0324FA03F404F00704B4F1040C06D275
:104B50000EEB840CBDE810404CF0010C6047DFE820
:104B60000CF0070802024FF00040A0F5800010BDD5
:104B70000846420018BFD2F1807288BF00F00040A2
:104B800010BDFF2141EAD050C0057047FBF79ABD28
:104B90000CF00F03092B08BF082000F059800A2BE6
:104BA0000BD0082B18BF704708BF1CF0400F0AD06D
:104BB0004FF000004FF0000170471CF0400F18BF8D
:104BC0004FF0004070471CF0100F08D020F07043E9
:104BD00000F07F4242EAD3014FEA4370704700F091
:104BE000604021F07F4242EA000201F07F4040EA4B
:104BF000727070474FF0FF0C4CF4E06C1CEA1153DC
:104C00001CBF9CEA030C9445C2BFDA4201EB02517F
:104C10007047002B0DD0BCF1000F0FD0002A01F01F
:104C20000041A4BF41F0E04141F07F614FF000003E
:104C3000704701F000414FF00000704750EA013327
:104C40004FF09B0C18BF4CF0806C7FF429AD70477F
:104C50001CF4801F11D01CF4E02F03D06FEACC317C
:104C6000490070474FF04050EFF3008222F070424D
:104C700042EA000282F3008870474FF0000070475C
:104C80000000000000000000002F000000000700EE
:104C9000070000147F147F1400242A7F2A12006268
:104CA0006408132300364955225000000503000014
:104CB00000001C224100000041221C000014083E9C
:104CC00008140008083E0808000000A06000000862
:104CD00008080808000060600000002010080402B6
:104CE000003E5149453E0000427F40000042615174
:104CF0004946002141454B31001814127F1000270E
:104D000045454539003C4A494930000171090503D0
:104D100000364949493600064949291E0000363601
:104D20000000000056360000000814224100001464
:104D30001414141400004122140800020151090641
:104D400000324959513E007C1211127C007F4949C2
:104D50004936003E41414122007F4141221C007FF3
:104D600049494941007F09090901003E4149497A01
:104D7000007F0808087F0000417F4100002040417B
:104D80003F01007F08142241007F40404040007FE7
:104D9000020C027F007F0408107F003E4141413E2B
:104DA000007F09090906003E4151215E007F091973
:104DB00029460046494949310001017F0101003F70
:104DC0004040403F001F2040201F003F4038403FF0
:104DD0000063140814630007087008070061514954
:104DE000454300007F41410000552A552A550000E7
:104DF00041417F0000040201020400404040404065
:104E0000000001020400002054545478007F4844FC
:104E1000443800384444442000384444487F003833
:104E20005454541800087E0901020018A4A4A47C5C
:104E3000007F080404780000447D40000040808426
:104E40007D00007F102844000000417F4000007C6E
:104E500004180478007C080404780038444444387A
:104E600000FC242424180018242418FC007C0804C6
:104E7000040800485454542000043F444020003C9F
:104E80004040207C001C2040201C003C4030403C26
:104E9000004428102844001CA0A0A07C00446454B6
:104EA0004C441414141414140000000000000000FA
:104EB000000000000000FC000000000002000000F4
:104EC000000C020C020000000000000090D0BCD0DA
:104ED000BC900003000300001824FE448C00030271
:104EE000070201001824D8B04C8000030001020121
:104EF000C038E438E00001020201020208060000A6
:104F00000000000000000000000000F804020000A3
:104F100000010204000204F8000000040201000085
:104F20009060F86090000000010000002020FC204C
:104F30002000000001000000000000000000080642
:104F400000000000202020202000000000000000C1
:104F50000000000000000002000000000080601C53
:104F60000200040300000000F8040404F800010239
:104F7000020201000008FC00000000020302000021
:104F800018844424180003020202020008042424A6
:104F9000D80001020202010040B088FC800000003D
:104FA000000302003C242424C40001020202010088
:104FB000F824242CC0000102020201000C04E41CAD
:104FC0000400000003000000D8242424D8000102BB
:104FD0000202010038444444F800000302020100C8
:104FE000000010000000000002000000000020008F
:104FF00000000000060000000020508804020000AD
:1050000000000102909090909000000000000000CD
:105010000002048850200002010000001804C4248B
:105020001800000002000000F804E494F8000102F7
:105030000202020000E09CF0800002030000030274
:1050400004FC2424D800020302020100F804040432
:105050000C0001020202010004FC0404F800020337
:105060000202010004FC24740C000203020203008B
:1050700004FC24740C00020302000000F008044445
:10508000CC4000010202010004FC2020FC040203C9
:10509000000003020404FC040400020203020200F4
:1050A000000404FC040406040403000004FC24D0EF
:1050B0000C0402030200030204FC040000000203CB
:1050C00002020203FC3CC03CFC000300030003009E
:1050D00004FC30C4FC04020302000300F8040404CE
:1050E000F80001020202010004FC2424180002035B
:1050F00002000000F8848404F800010202070500A1
:1051000004FC2464980002030200030218242444CF
:105110008C000302020201000C04FC040C000002DB
:105120000302000004FC0000FC0400010202010074
:10513000047C80E01C040000030000001CE03CE054
:105140001C00000300030000049C609C0400020398
:1051500000030200041CE01C040000020302000023
:105160000C84641C04000203020203000000FE021F
:105170000200000007040400000E30C00000000020
:1051800000010200000202FE00000004040700000B
:105190000004020400000000000000000000000005
:1051A00000000808080808080000020000000000CD
:1051B000000000000040A0A0C000000102020302A5
:1051C00004FC2020C00000030202010000C02020D7
:1051D000600000010202020000C02024FC00000167
:1051E0000202030200C0A0A0C000000102020200EF
:1051F0000020F82424040002030202000040A0A0C2
:10520000602000070A0A0A0404FC2020C0000203F0
:10521000020003020020E40000000002030200007C
:10522000000020E4000008080807000004FC80E0FB
:1052300020200203020003020404FC00000002021A
:1052400003020200E020E020C0000300030003008E
:1052500020E02020C00002030200030200C0202042
:10526000C00000010202010020E02020C000080F61
:105270000A02010000C02020E0000001020A0F081D
:1052800020E0402020000203020000000060A0A0F7
:1052900020000002020203000020F82000000000AD
:1052A0000102020020E00020E000000102020302EF
:1052B00020E0208060200000030100006080E0808A
:1052C00060000003000300002060806020000203F3
:1052D0000003020020E02080602008080701000091
:1052E0000020A0602000000203020200000020DE77
:1052F0000200000000070400000000FF00000000A2
:10530000000F00000002DE20000000040700000083
:10531000020102040402000000000000000000007E
:10532000000000000000000000000000000000F885
:1053300000000000000000333000000000100C06E8
:10534000100C0600000000000000000040C0784083
:10535000C0784000043F04043F040400007088FC4F
:1053600008300000001820FF211E0000F008F000A7
:10537000E018000000211C031E211E0000F0088818
:10538000700000001E2123241927211010160E0082
:10539000000000000000000000000000000000E02D
:1053A0001804020000000007182040000002041842
:1053B000E00000000040201807000000404080F09E
:1053C000804040000202010F01020200000000F0D4
:1053D000000000000101011F0101010000000000A8
:1053E0000000000080B0700000000000000000001D
:1053F00000000000000101010101010100000000A6
:10540000000000000030300000000000000000003C
:1054100080601804006018060100000000E0100819
:105420000810E000000F102020100F00001010F8EE
:10543000000000000020203F20200000007008082D
:1054400008887000003028242221300000300888AD
:10545000884830000018202020110E000000C020D5
:1054600010F8000000070424243F240000F80888F6
:10547000880808000019212020110E0000E0108883
:1054800088180000000F112020110E0000380808B5
:10549000C83808000000003F0000000000708808C5
:1054A00008887000001C222121221C0000E0100846
:1054B0000810E0000000312222110F00000000C09F
:1054C000C00000000000003030000000000000803C
:1054D000000000000000806000000000000080402C
:1054E0002010080000010204081020004040404045
:1054F0004040400004040404040404000008102098
:1055000040800000002010080402010000704808DC
:105510000808F0000000003036010000C030C82844
:10552000E810E0000718272423140B000000C038FF
:10553000E0000000203C23020227382008F8888879
:1055400088700000203F202020110E00C030080885
:1055500008083800071820202010080008F808085C
:105560000810E000203F202020100F0008F8888855
:10557000E8081000203F20202320180008F8888821
:10558000E8081000203F200003000000C030080899
:105590000838000007182020221E020008F8080022
:1055A0000008F808203F210101213F20000808F8E9
:1055B000080800000020203F20200000000008080C
:1055C000F8080800C08080807F00000008F888C0CC
:1055D00028180800203F20012638200008F808007D
:1055E00000000000203F20202020300008F8F800B4
:1055F000F8F80800203F003F003F200008F830C0C6
:105600000008F808203F200007183F00E0100808B5
:105610000810E0000F10202020100F0008F80808E4
:105620000808F000203F210101010000E0100808F7
:105630000810E0000F18242438504F0008F888881C
:1056400088887000203F2000030C302000708808FC
:10565000080838000038202121221C00180808F80A
:10566000080818000000203F2000000008F808008B
:105670000008F808001F202020201F00087888005C
:1056800000C83808000007380E010000F80800F8CC
:105690000008F800033C0700073C03000818688076
:1056A0008068180820302C03032C30200838C800EC
:1056B000C83808000000203F20000000100808083B
:1056C000C83808002038262120201800000000FEDD
:1056D000020202000000007F40404000000C30C089
:1056E00000000000000000010638C00000020202B5
:1056F000FE000000004040407F0000000000040267
:105700000202040000000000000000000000000091
:105710000000000080808080808080800002020481
:105720000000000000000000000000000000808079
:10573000808000000019242222223F2008F80080E7
:1057400080000000003F112020110E0000000080AA
:1057500080800000000E1120202011000000008039
:105760008088F800000E112020103F20000080806B
:1057700080800000001F222222221300008080F07F
:10578000888888180020203F2020000000008080AA
:1057900080808000006B94949493600008F80080EF
:1057A00080800000203F210000203F20008098984A
:1057B000000000000020203F2020000000000080AA
:1057C0009898000000C08080807F000008F80000EA
:1057D00080808000203F24022D302000000808F83F
:1057E000000000000020203F2020000080808080FA
:1057F00080808000203F20003F20003F808000808C
:1058000080800000203F210000203F200000808099
:1058100080800000001F202020201F00808000804A
:105820008000000080FFA12020110E0000000080F9
:1058300080808000000E112020A0FF8080808000EA
:105840008080800020203F21200001000000808017
:10585000808080000033242424241900008080E00C
:10586000808000000000001F2020000080800000D9
:1058700000808000001F202020103F2080808000BA
:105880000080808000010E300806010080800080CA
:10589000008080800F300C030C300F0000808000EF
:1058A000808080000020312E0E312000808080001A
:1058B0000080808080818E701806010000808080CA
:1058C000808080000021302C222130000000000068
:1058D000807C020200000000003F40400000000009
:1058E000FF00000000000000FF0000000002027C3A
:1058F000800000000040403F000000000006010161
:10590000020204040000000000000000000000008B
:105910000000000000000000000000000000000087
:105920000000000000000000000000000000000077
:105930000000000000F0F0F0000000000000000097
:1059400000017F010000000000000000001C1C1C82
:105950000000000000008060301C8C60301C0C00D7
:105960000000000000000000000000000000000037
:105970000000000000000000000000E00000000047
:1059800000E000000086E69F86868686E69F860009
:1059900000011F01010101011F010100000080C081
:1059A0006020F820E0C00000000003070C18FF7022
:1059B000E18100000000070F10107F100F070000AA
:1059C0008060206080000000E02000000F30203068
:1059D0009F70DC371030C0000000100E0300071865
:1059E000101807000000C02020E0C00000000000E8
:1059F00080E01F38E88703C43C040000070F18103C
:105A0000100B070D1010080000808C4C38000000AF
:105A10000000000000000000000000000000000086
:105A20000000000000000000000000000000000076
:105A3000000080E0300804000000000000FEFF01CC
:105A400000000000000000000000030F18204000CC
:105A500000040830E08000000000000000000000AA
:105A600001FFFE0000000000004020180F030000AE
:105A700000000000000000000000C0000000000066
:105A8000004266663C18FF183C6666420000000053
:105A90000000030000000000000000000000800083
:105AA00000000000001010101010FF101010101057
:105AB00000000000000003000000000000000000E3
:105AC00000000000000000000000000000000000D6
:105AD0000000000000808C4C380000000000000036
